:1000000073EF2BF00000000000EF00F00000000094
:0A0010000000000000000000F3D71C
:10001C000B820BAE18EF00F00368026801680068F1
:08002C000A360232FF0E120039
:0E003400026A016A006A086A036A000E12007E
:100042000B840BAE2CEF00F0010E036E026A016A04
:0A005200006A0A360232FF0E1200A7
:08005C000AAE029E000E120024
:100064000CB074EF00F00CA21AEF01F00E6A000E4F
:1000740002648BEF00F0F00E0214D8A456EF00F0E7
:10008400023A01380F0B02260138F00B016E0038DA
:100094000F0B01260038F00B006E08380F0B0026FA
:1000A4000838F00B086E0E84D89002BE6FEF00F093
:1000B40008360036013602360E2A02BE6FEF00F013
:1000C40008360036013602360E2A02BE6FEF00F003
:1000D40008360036013602360E2A0E50036410EF3D
:1000E40001F0035E0BBC08AE15EF01F0D880800E62
:1000F40008640030000E002201220222D8A015EF6D
:1001040001F0023201320032034A1AEF01F015EF16
:1001140001F001C002F000C001F008C000F0086A5C
:10012400000E0E860264C2EF00F0F00E0214D8A492
:10013400AAEF00F0023A01380F0B02260138F00B47
:10014400016E00380F0B01260038F00B006E0E8490
:10015400D89002BE6FEF00F00036013602360E2A48
:1001640002BE6FEF00F00036013602360E2A02BEE0
:100174006FEF00F00036013602360E2A6FEF00F002
:1001840001C002F000C001F0006A000E0E960E8855
:100194000264EFEF00F0F00E0214D8A4DAEF00F0DE
:1001A400023A01380F0B02260138F00B016E0E845F
:1001B400D89002BE6FEF00F0013602360E2A02BE5E
:1001C4006FEF00F0013602360E2A02BE6FEF00F028
:1001D400013602360E2A6FEF00F001C002F0016A08
:1001E400000E0E8602641FEF01F0F00E0214D8A474
:1001F400FEEF00F0023A0E84D89002BE6FEF00F0DA
:1002040002360E2A02BE6FEF00F002360E2A02BE3C
:100214006FEF00F002360E2A6FEF00F0010E0C6E45
:100224000EDF22EF01F0020E0C6E16DF22EF01F05A
:10023400040E0C6EF1DE22EF01F0080E0C6EF8DEF7
:020244001200A6
:10024600086A096A000E07620364A8EF01F002500B
:1002560006180A6E075003267E0ED8A039EF01F065
:10026600035ED8B0ACEF01F03DEF01F0035ED8A01D
:10027600B0EF01F0028E068E02C00EF001C00BF048
:1002860000C00DF000500402F4CF0CF0015005023E
:10029600F4CF00F0F3CF08F00402F3500C26F4502C
:1002A6000822000E00220D500502F3500C26F450D1
:1002B6000822000E002202500402F3500826F450D1
:1002C600002202500502016A000E0122F3500026A8
:1002D600F45001220D500602F3500826F450002275
:1002E600026A000E012202220B500602F35000267B
:1002F600F4500122000E02220E500602F35001268F
:10030600F450022202BE90EF01F0083600360136A4
:1003160002360306D8B4B0EF01F0A3EF01F0D8809F
:10032600800E08640030000E002201220222D8A0AE
:10033600A3EF01F0023201320032034AACEF01F0C2
:100346000AAE029E000EB2EF01F0010E70DEB2EFB1
:1003560001F0020E60DEB2EF01F0040E6FDE120055
:10036600086A080E0C6E003408360450085ED8B0D1
:0E03760002D00826D89000360C2EF5D71200C3
:0A038400000EACB2010E006E120074
:0A038E00000E9EBA010E006E120070
:10039800AECF01F0ABA202D0AB98AB8801C000F0A1
:0203A800120041
:1003AA002DD000016387010E0101E727000EE82323
:1003BA00E92361D000016381010E0101E727000EE4
:1003CA00E823E92358D000016383010E0101E727DE
:1003DA00000EE823E9234FD000016487010E0101D2
:1003EA00E727000EE823E92346D000016385010EC2
:1003FA000101E727000EE823E9233DD0E7C1F6FF14
:10040A00E8C1F7FFE9C1F8FF0900F5CF01F0015093
:10041A002D0AC7E0E7C1F6FFE8C1F7FFE9C1F8FF17
:10042A000900F5CF01F00150200AC4E0E7C1F6FF48
:10043A00E8C1F7FFE9C1F8FF0900F5CF01F0015063
:10044A002B0AC1E0E7C1F6FFE8C1F7FFE9C1F8FFEF
:10045A000900F5CF01F00150230ABEE0E7C1F6FF1B
:10046A00E8C1F7FFE9C1F8FF0900F5CF01F0015033
:10047A00300ABBE001D094D7000163A301D0639195
:10048A0063A701D06395E7C100F0E8C101F0E9C1B3
:04049A0002F012005A
:10049E000B800BAE5BEF02F0026A0AAEFF0E026E2D
:0C04AE00016E006E0A360232FF0E1200D2
:0804BA000B6A0B86FF0E120015
:1004C2000101E751390806E3300EE75D03E3010E4F
:0804D200006E01D0006A120067
:1004DA00086A096A100E0C6E01340836093604508F
:1004EA00085E0550D8A0053C095ED8B007D0045074
:1004FA0008260550D8B0053C0926D89000360136A2
:06050A000C2EEAD71200DE
:10051000000163A567D063A314D063A103D02D0E9F
:10052000036E02D02B0E036EE7C1E1FFE8C1E2FFCC
:1005300003C0E6FF0101E74BE82B0001614B622B92
:100540003AD063A10DD0E7C1E1FFE8C1E2FF200E80
:10055000E66E0101E74BE82B0001614B622B2BD0CB
:10056000C00E6315016E6451080B026E0250080A3A
:1005700002E1800E01181FE1E7C1E1FFE8C1E2FFDF
:10058000300EE66E0101E74BE82B0001614B622B58
:1005900063AB03D0580E046E02D0780E046EE7C130
:1005A000E1FFE8C1E2FF04C0E6FF0101E74BE82BF1
:1005B0000001614B622B5A505B1013E0E7C1E1FF71
:1005C000E8C1E2FF300EE66E0101E74BE82B0001C7
:1005D000614B622B010E5A5E000E5B5A5A505B1043
:1005E000EDE180D05A505B1015E063B713D0E7C13E
:1005F000E1FFE8C1E2FF200EE66E0101E74BE82BC8
:100600000001614B622B010E5A5E000E5B5A5A507C
:100610005B10EDE163A314D063A103D02D0E056E32
:1006200002D02B0E056EE7C1E1FFE8C1E2FF05C075
:10063000E6FF0101E74BE82B0001614B622B0ED076
:1006400063A10CD0E7C1E1FFE8C1E2FF200EE66E36
:100650000101E74BE82B0001614B622BC00E6315D3
:10066000016E6451080B026E0250080A02E1400E4E
:1006700001180DE1E7C1E1FFE8C1E2FF300EE66ECF
:100680000101E74BE82B0001614B622B2BD0C00E20
:100690006315016E6451080B026E0250080A02E1F4
:1006A000800E01181FE1E7C1E1FFE8C1E2FF300E53
:1006B000E66E0101E74BE82B0001614B622B63AB57
:1006C00003D0580E066E02D0780E066EE7C1E1FF29
:1006D000E8C1E2FF06C0E6FF0101E74BE82B00019D
:1006E000614B622B800E006E800E5D18005C02E193
:1006F0005C505E5C0DE2E7C1E1FFE8C1E2FF300E55
:10070000E66E0101E74BE82B0001614B622BEAD753
:0A071000E7C100F0E8C101F012009B
:10071A000B6A0A6A096A00500402F4CF09F0F3CF9F
:10072A0008F001500502F4CF0BF0F3CF0AF00050A5
:10073A000502F3500926F4500A22E86A0B220150F6
:10074A000402F3500926F4500A22E86A0B2208C070
:10075A0000F009C001F00AC002F00BC003F0120059
:10076A00025006180E6E086A096A0B6A035007647B
:10077A00A8EF04F006500A6E068E028E03500B6E26
:10078A000750036E000E0B64F8EF03F00B50075E80
:10079A00D8B499EF04F0070E076467EF04F0075E18
:1007AA0000C008F001C000F002C001F0026A074E62
:1007BA0099EF04F007643CEF04F0075E00C008F00C
:1007CA0001C000F0016A074E99EF04F007641AEFBE
:1007DA0004F0075E00C008F0006A074E99EF04F0C3
:1007EA00076401EF04F00AC002F005C001F004C07A
:1007FA0000F0086AC5EF05F0030E07640CEF04F079
:10080A00075E08380F0B086E074E99EF04F0D89070
:10081A000832074E99EF04F0D8900832074E99EF44
:10082A0004F0D890083299EF04F0030E07642BEF16
:10083A0004F0075E08380F0B086E0038F00B082624
:10084A0000380F0B006E074E99EF04F0D890003273
:10085A000832074E99EF04F0D89000320832074E5A
:10086A0099EF04F0D8900032083299EF04F0030EA1
:10087A00076453EF04F0075E08380F0B086E003860
:10088A00F00B082600380F0B006E0138F00B00261B
:10089A0001380F0B016E074E99EF04F0D890013220
:1008AA0000320832074E99EF04F0D8900132003234
:1008BA000832074E99EF04F0D8900132003208321C
:1008CA0099EF04F0030E076484EF04F0075E08381A
:1008DA000F0B086E0038F00B082600380F0B006E5D
:1008EA000138F00B002601380F0B016E0238F00BAD
:1008FA00012602380F0B026E074E99EF04F0D890CA
:10090A000232013200320832074E99EF04F0D890D1
:10091A000232013200320832074E99EF04F0D890C1
:10092A000232013200320832096A000E0EAE8DEF31
:10093A0005F0081E001E011E021E082A00220122BE
:10094A0002228DEF05F00750D8A4AEEF04F0C5EFF0
:10095A0005F0096A02C00AF0028E068E0750035C8F
:10096A00076ED8B480EF05F0070E07644EEF05F066
:10097A00075E0450096E0550046E0650056E066A3D
:10098A00074E80EF05F0070E076423EF05F0075EB8
:10099A000450096E0550046E056A074E80EF05F093
:1009AA00070E076401EF05F0075E0450096E046A3A
:1009BA00074E80EF05F0070E0764E8EF04F00AC05F
:1009CA0002F0C5EF05F0030E0764F3EF04F0075ECB
:1009DA0009380F0B096E074E80EF05F0D8900932DF
:1009EA00074E80EF05F0D8900932074E80EF05F0E8
:1009FA00D890093280EF05F0030E076412EF05F074
:100A0A00075E09380F0B096E0438F00B0926043803
:100A1A000F0B046E074E80EF05F0D89004320932AE
:100A2A00074E80EF05F0D89004320932074E80EF66
:100A3A0005F0D8900432093280EF05F0030E0764FE
:100A4A003AEF05F0075E09380F0B096E0438F00B10
:100A5A00092604380F0B046E0538F00B04260538F6
:100A6A000F0B056E074E80EF05F0D8900532043261
:100A7A000932074E80EF05F0D89005320432093268
:100A8A00074E80EF05F0D89005320432093280EF24
:100A9A0005F0030E07646BEF05F0075E09380F0BCC
:100AAA00096E0438F00B092604380F0B046E05385A
:100ABA00F00B042605380F0B056E0638F00B0526D9
:100ACA0006380F0B066E074E80EF05F0D8900632F7
:100ADA00053204320932074E80EF05F0D89006320B
:100AEA00053204320932074E80EF05F0D8900632FB
:100AFA00053204320932086A000E0EAE8DEF05F097
:100B0A00091E041E051E061E092A042205220622A3
:100B1A0009500826045000220550012206500222DC
:100B2A000EBEA4EF05F0D8A0B3EF05F002320132F1
:100B3A0000320832033EB3EF05F0BFEF05F0D8B03C
:100B4A00B9EF05F0000E081E001E011E021E082A3B
:100B5A000022012202220A7EB9EF05F0010E0C6E74
:100B6A0032EC00F0C7EF05F0020E0C6E32EC00F02A
:100B7A00C7EF05F0040E0C6E0EEC00F0C7EF05F09F
:060B8A00000E0C6E1200CB
:100B90000D6A086A0050D8B4000C04180A6E0ABE28
:100BA0000D1E0B6A04AE02D0041E042A00AE02D051
:100BB000001E002A005004100A6E0ABE1FD0045006
:100BC000085E003600340836045008260036060E4B
:100BD0000C6E00340836045000B0085E00A00826F1
:100BE00000360C2EF6D700A008260BB015D00DAE9F
:100BF000000C001E002A081E082A000C04AE09D0B2
:100C000000BE04D00050086E006AF1D7006A002AC6
:100C1000000C001E0B2AD3D7082A0450085CD8A465
:0E0C2000E6D7086A002A00AEE2D7FF0C1200E9
:100C2E000134083609360450085E0550D8A0053C3C
:100C3E00095E003601360F0E0C6E01340836093689
:100C4E00045000A006D0085E0550D8A0053C095EF1
:100C5E0005D008260550D8B0053C092600360136C9
:100C6E000C2EEBD700B006D0045008260550D8B095
:080C7E00053C092600001200EC
:100C86000050086E0150006E0250016E0350026E55
:100C9600036A0B6A0C6A9E0E036E0A6A02AE60EF66
:100CA60006F0081E001E011E021E082AD8B4002ADD
:100CB600D8B4012AD8B4022A0A8E020E0C6E32EC7F
:040CC60000F0120028
:100CCA000101DB51200A09E0DB510D0804E3090E9A
:100CDA00DB5D01E302D0006A02D0010E006E120051
:060CEA00067E3EDD120053
:100CF0000450000A08E10550000A05E1FF0E006EED
:100D00007F0E016E57D00D6A096A086A0150001003
:100D1000D8B4000C015005180A6E0ABE0D1E0B6AED
:100D200005AE05D0041E051E042AD8B4052A01AE5E
:100D300005D0001E011E002AD8B4012A015005105A
:100D40000A6E0ABE10D073DF0BB020D00DAE000CBF
:100D5000001E011E002AD8B4012A081E091E082AF6
:100D6000D8B4092A000C05AE0DD001BE07D0015041
:100D7000096E0050086E016A006AE8D7016A006ACD
:100D8000002A000C011E001E0B2ADDD7082AD8B449
:100D9000092A0450085CD8A4D9D70550095CD8A406
:100DA000D5D7096A086A002AD8B4012A01AECED77D
:060DB0000000FF0C120020
:100DB6000A6A0350D8A40A800750D8A40A820A50A7
:100DC600D8B43EEF07F0030AD8B4F7EF06F00AB03E
:100DD600F2EF06F006AE3CEF07F03AEF07F002AE90
:100DE6003AEF07F03CEF07F00250800B0A6E029EC6
:100DF6000650800B069E0A18D8B408EF07F00A5072
:100E0600D8B43AEF07F03CEF07F00750035CD8B4CC
:100E160012EF07F0D8A02EEF07F034EF07F00650D8
:100E2600025CD8B41CEF07F0D8A02EEF07F034EF21
:100E360007F00550015CD8B426EF07F0D8A02EEFD6
:100E460007F034EF07F00450005CD8B43EEF07F02B
:100E5600D8B034EF07F00A52D8B43CEF07F03AEFB7
:100E660007F00A52D8B43AEF07F03CEF07F0D88003
:0E0E76001200D8901200D880D884120012000A
:100E840003500718D8A456EF07F002500618D8A448
:100E940056EF07F001500518D8A456EF07F000509C
:0E0EA4000418D8B4D8841200D894120012009A
:100EB2000001616B626B636B646BDDC100F0DEC1CC
:100EC20001F0DFC102F0010E0101DD27000EDE2379
:100ED200DF2300C0F6FF01C0F7FF02C0F8FF0900E0
:100EE200F5CF00F000C05EF00052D8B472EF0CF003
:100EF2005E50250A0CE0DBC1E1FFDCC1E2FF5EC00F
:100F0200E6FFDB4BDC2B0001614B622BD6D70001E5
:100F12005A6A5B6A636B646BDDC1E7F1DEC1E8F1BB
:100F2200DFC1E9F1D5EC01F000C0DDF101C0DEF175
:100F320002C0DFF100C0F6FF01C0F7FF02C0F8FFF8
:100F42000900F5CF00F0000E016E00C0E7F161EC80
:100F520002F0005236E05A6A5B6A5AC000F05BC087
:100F620001F00A0E046E000E056E8DEC03F0DDC179
:100F7200F6FFDEC1F7FFDFC1F8FF0900F5CF02F08F
:100F8200025000245A6E000E01205B6E300E5A5E33
:100F9200000E5B5A010EDD27000EDE23DF23DDC1CA
:100FA200F6FFDEC1F7FFDFC1F8FF0900F5CF00F061
:100FB200000E016E00C0E7F161EC02F00052CDE1DB
:100FC20033D0DDC1F6FFDEC1F7FFDFC1F8FF090054
:100FD200F5CF01F001502A0A27E1E0C1E9FFE1C1A2
:100FE200EAFFEECF00F0EECF01F000C0E9FF01C052
:100FF200EAFFEECF5AF0EECF5BF0E0C1E9FFE1C1CC
:10100200EAFF020EEE24006E000EEE20016EE0C139
:10101200E1FFE1C1E2FF00C0E6FF01C0E6FF010E11
:10102200DD27000EDE23DF23DDC1F6FFDEC1F7FF81
:10103200DFC1F8FF0900F5CF01F001502E0A70E17F
:10104200010EDD27000EDE23DF23DDC1F6FFDEC148
:10105200F7FFDFC1F8FF0900F5CF01F001502A0ABE
:1010620028E1E0C1E9FFE1C1EAFFEECF00F0EECFF7
:1010720001F000C0E9FF01C0EAFFEECF5CF0EECF65
:101082005DF0E0C1E9FFE1C1EAFF020EEE24006E6D
:10109200000EEE20016EE0C1E1FFE1C1E2FF00C0FF
:1010A200E6FF01C0E6FF010EDD27000EDE23DF238F
:1010B20036D05C6A5D6ADDC1F6FFDEC1F7FFDFC1D3
:1010C200F8FF0900F5CF00F0000E016E00C0E7F155
:1010D20061EC02F0005223E05CC000F05DC001F060
:1010E2000A0E046E000E056E8DEC03F0DDC1F6FFF4
:1010F200DEC1F7FFDFC1F8FF0900F5CF02F00250B1
:1011020000245C6E000E01205D6E300E5C5E000EEF
:101112005D5A010EDD27000EDE23DF23CCD702D07D
:101122005C6A5D6ADDC100F0DEC101F0DFC102F080
:10113200010EDD27000EDE23DF2300C0F6FF01C013
:10114200F7FF02C0F8FF0900F5CF5EF0FDD061C0E5
:1011520000F062C001F0C9D30001638D24D123D114
:101162000001638B0001638F1ED1E0C1E9FFE1C181
:10117200EAFFEECF00F0EECF01F000C0E9FF01C0C0
:10118200EAFFEECFE2F1EECFE3F1E0C1E9FFE1C128
:10119200EAFF020EEE24006E000EEE20016EE0C1A8
:1011A200E1FFE1C1E2FF00C0E6FF01C0E6FF000E81
:1011B2000101E31902E1000EE21904E1150EE26FEA
:1011C200000EE36FE46BE56BE451E225E96EE55155
:1011D200E321EA6EEE520BE0010EE425006E000EF2
:1011E200E521016E00C0E4F101C0E5F1EDD75C50EC
:1011F2005D100AE0E5515D5C02E1E4515C5C04E2F1
:101202005CC0E4F15DC0E5F15B50E55D02E15A507E
:10121200E45D05E2E4515A5EE5515B5A02D05A6A36
:101222005B6A000163B718D05AC000F05BC001F0DE
:10123200010E5A5E000E5B5A005001100DE0DBC138
:10124200E1FFDCC1E2FF200EE66E0101DB4BDC2B8D
:101252000001614B622BE8D7E4C102F0E5C103F063
:10126200010E0101E45D006E000EE559016E00C041
:10127200E4F101C0E5F1025003101AE0E2C1E9FF16
:10128200E3C1EAFFDBC1E1FFDCC1E2FFEECFE6FF33
:10129200DB4BDC2B010EE225006E000EE321016E1A
:1012A20000C0E2F101C0E3F10001614B622BD4D72F
:1012B200000163A718D05AC000F05BC001F0010E14
:1012C2005A5E000E5B5A005001100DE0DBC1E1FFD7
:1012D200DCC1E2FF200EE66E0101DB4BDC2B0001DC
:1012E200614B622BE8D7E9D5E0C1E9FFE1C1EAFF32
:1012F200EECF00F0EECF01F000C0E9FF01C0EAFF3F
:10130200EECF5EF0E0C1E9FFE1C1EAFF020EEE249A
:10131200006E000EEE20016EE0C1E1FFE1C1E2FFCE
:1013220000C0E6FF01C0E6FF5E0E0101E26F000EA3
:10133200E36F010EE46F000EE56F59D7C00E000196
:101342006313000E64132FD05E50000AD8B4FFD688
:101352005E506C0AD8B400D75E504C0AD8B4FCD6A2
:101362005E506F0AD8B4F8D65E50640AD8B4F7D685
:101372005E50690AD8B4F3D65E50700AD8B4F0D67B
:101382005E50580AD8B4ECD65E50780AD8B4EAD681
:101392005E50730AD8B4E9D65E50630AA5E05E5087
:1013A200750ACCE0C1D70001C00E6315016E64C09E
:1013B20002F0000E0216000E021802E1000E0118E1
:1013C2003EE1E0C1E9FFE1C1EAFFEECF00F0EECF7E
:1013D20001F000C0E9FF01C0EAFFEECFE2F1EECF7B
:1013E200E3F1E0C1E9FFE1C1EAFF020EEE24006E83
:1013F200000EEE20016EE0C1E1FFE1C1E2FF00C09C
:10140200E6FF01C0E6FF800E0101E319006E800EC7
:10141200005C02E1000EE25D11E2030E00016313C3
:10142200000E64130101E2510008006EE3C101F0F5
:10143200000E015600C0E2F101C0E3F122D0E0C18A
:10144200E9FFE1C1EAFFEECF00F0EECF01F000C00C
:10145200E9FF01C0EAFFEECFE2F1EECFE3F1E0C136
:10146200E9FFE1C1EAFF020EEE24006E000EEE205B
:10147200016EE0C1E1FFE1C1E2FF00C0E6FF01C091
:10148200E6FF000E5D1802E1000E5C1809E10101A1
:10149200000EE31902E1000EE21902E15C4A5D2A44
:1014A200C00E00016315006E00C005F07ED0010E73
:1014B2005E6E5E50050A24E05EC000F0000E016E12
:1014C200026E036E00360090013602360336F10ECC
:1014D2000024F66E6C0E0120F76E000E0220F86EEC
:1014E2000900F5CF01F00900F5CF02F00250010129
:1014F200E35D02E10150E25D01E202D05E2AD9D74A
:1015020062D0010E5E6E5E50040A24E001015EC0EC
:1015120000F0000E016E026E036E0036009001367E
:1015220002360336FB0E0024F66E6C0E0120F76EB7
:10153200000E0220F86E0900F5CF01F00900F5CF88
:1015420002F00250E35D02E10150E25D01E202D0ED
:101552005E2AD9D738D0010E5E6E5E50060A24E0AC
:1015620001015EC000F0000E016E026E036E0036D5
:101572000090013602360336CE0E0024F66E6C0E53
:101582000120F76E000E0220F86E0900F5CF01F07F
:101592000900F5CF02F00250E35D02E10150E25D85
:1015A20001E202D05E2AD9D70ED00550000AD8B483
:1015B2007ED70550C00AD8B47AD70550800AA1E078
:1015C2000550400AC8E0800E006E800E5D18005C77
:1015D20002E15C505E5C03E25CC05EF00DD0800E06
:1015E2005D18006E800E005C02E15E505C5C04E2FD
:1015F2005EC05CF0000E5D6E5A505B100FE0030E91
:1016020000016315006E64C001F0000E0116005067
:10161200011004E0010E5A5E000E5B5A800E5D1846
:10162200006E800E5B18005C02E15A505C5C05E2C1
:101632005C505A5E5D505B5A02D05A6A5B6A000186
:10164200C40E6315016E6451080B026E0250080A43
:1016520002E1400E011808E15A505B1004E0010E4D
:101662005A5E000E5B5A1DD00001C00E6315016E5A
:101672006451080B026E0250080A02E1800E011842
:1016820010E1800E006E800E5B18005C02E15A5081
:10169200020805E2020E5A5E000E5B5A02D05A6A36
:1016A2005B6ADBC1E7F1DCC1E8F188EC02F000C063
:1016B200DBF101C0DCF15CC000F05DC001F0010EA5
:1016C2005C5E000E5D5A00500110D8B4EAD0C00E24
:1016D2006315006E00C0E6F1C7D05CC000F05DC0CB
:1016E20001F0000E5DBEFF0E026E036E003600902A
:1016F200013602360336F10E0024F66E6C0E01201E
:10170200F76E000E0220F86E0900F5CF04F0090012
:10171200F5CF05F0E2C100F0E3C101F06DEC02F09B
:101722000A0E046E000E056E6DEC02F008C000F0A9
:1017320009C001F0300E00245E6EA6D0000163AB3A
:1017420035D05CC000F05DC001F0000E5DBEFF0E42
:10175200026E036E00360090013602360336FB0E2F
:101762000024F66E6C0E0120F76E000E0220F86E59
:101772000900F5CF04F00900F5CF05F0E2C100F051
:10178200E3C101F06DEC02F00F0E0016000E01161F
:10179200850E0024F66E6C0E0120F76E000EF86EB8
:1017A200000EF8220900F5CF5EF034D05CC000F0E4
:1017B2005DC001F0000E5DBEFF0E026E036E0036CC
:1017C2000090013602360336FB0E0024F66E6C0ED4
:1017D2000120F76E000E0220F86E0900F5CF04F02A
:1017E2000900F5CF05F0E2C100F0E3C101F06DECB4
:1017F20002F00F0E0016000E0116740E0024F66E93
:101802006C0E0120F76E000EF86E000EF822090031
:10181200F5CF5EF039D05CC000F05DC001F0000E83
:101822005DBEFF0E026E036E003600900136023678
:101832000336CE0E0024F66E6C0E0120F76E000EFB
:101842000220F86E0900F5CF04F00900F5CF05F08B
:10185200E2C100F0E3C101F06DEC02F0070E0014EA
:101862005E6E300E5E2610D00101E651000AD8B439
:1018720034D7E651C00AD8B430D7E651800AD8B47A
:101882005DD7E651400AC7E00101DBC1E1FFDCC1DF
:10189200E2FF5EC0E6FFDB4BDC2B0001614B622BFB
:1018A2000AD763A71CD0800E006E800E5B18005C06
:1018B20002E15A50000813E2DBC1E1FFDCC1E2FFA2
:1018C200200EE66E0101DB4BDC2B0001614B622B2B
:1018D200010E5A5E000E5B5A5A505B10EDE15EEF4C
:0C18E20007F061C000F062C001F01200CD
:1018EE000B6A0A6A096A086A0E6A033408360450DB
:1018FE00085E0550D8A0053C095E0650D8A0063CEF
:10190E000A5E0750D8A0073C0B5EE86AD8A0010E0D
:10191E000E5E0336070E0C6E0334083609360A3691
:10192E000B360E36045003A012D0085E0550D8A018
:10193E00053C095E0650D8A0063C0A5E0750D8A0AA
:10194E00073C0B5EE86AD8A0010E0E5E11D0082689
:10195E000550D8B0053C09260650D8B0063C0A26DC
:10196E000750D8B0073C0B26E86AD8B0010E0E26F9
:10197E0003360C2ED1D70234083609360A360B360A
:10198E000E36045003A012D0085E0550D8A0053CB8
:10199E00095E0650D8A0063C0A5E0750D8A0073C48
:1019AE000B5EE86AD8A0010E0E5E11D00826055017
:1019BE00D8B0053C09260650D8B0063C0A2607507A
:1019CE00D8B0073C0B26E86AD8B0010E0E260236B8
:1019DE00070E0C6E0234083609360A360B360E36F2
:1019EE00045002A012D0085E0550D8A0053C095E36
:1019FE000650D8A0063C0A5E0750D8A0073C0B5EE6
:101A0E00E86AD8A0010E0E5E11D008260550D8B097
:101A1E00053C09260650D8B0063C0A260750D8B019
:101A2E00073C0B26E86AD8B0010E0E2602360C2EA5
:101A3E00D1D70134083609360A360B360E36045025
:101A4E0002A012D0085E0550D8A0053C095E0650D3
:101A5E00D8A0063C0A5E0750D8A0073C0B5EE86A89
:101A6E00D8A0010E0E5E11D008260550D8B0053C48
:101A7E0009260650D8B0063C0A260750D8B0073CB7
:101A8E000B26E86AD8B0010E0E260136070E0C6E34
:101A9E000134083609360A360B360E36045001A0CC
:101AAE0012D0085E0550D8A0053C095E0650D8A09D
:101ABE00063C0A5E0750D8A0073C0B5EE86AD8A029
:101ACE00010E0E5E11D008260550D8B0053C092631
:101ADE000650D8B0063C0A260750D8B0073C0B2655
:101AEE00E86AD8B0010E0E2601360C2ED1D700347E
:101AFE00083609360A360B360E36045001A012D0BF
:101B0E00085E0550D8A0053C095E0650D8A0063CDC
:101B1E000A5E0750D8A0073C0B5EE86AD8A0010EFB
:101B2E000E5E11D008260550D8B0053C0926065089
:101B3E00D8B0063C0A260750D8B0073C0B26E86AF8
:101B4E00D8B0010E0E260036070E0C6E0034083685
:101B5E0009360A360B360E36045000A012D0085E37
:101B6E000550D8A0053C095E0650D8A0063C0A5E7A
:101B7E000750D8A0073C0B5EE86AD8A0010E0E5E97
:101B8E0011D008260550D8B0053C09260650D8B00D
:101B9E00063C0A260750D8B0073C0B26E86AD8B098
:101BAE00010E0E2600360C2ED1D700B00ED00450EA
:101BBE0008260550D8B0053C09260650D8B0063C7C
:0C1BCE000A260750D8B0073C0B26120076
:101BDA00DBC1E9FFDCC1EAFFEE500101DD1905E1D5
:101BEA00DBC100F0DCC101F010D0DBC100F0DCC1C8
:101BFA0001F0DB4BDC2B00C0E9FF01C0EAFFEECFAE
:0C1C0A0000F00052E5E1006A016A1200DF
:101C1600F250026EF29E0500FF6A0150FE6E005001
:081C2600FD6E02BEF28E1200F9
:101C2E006E0E0101DB5DD8A0CAD0640E046EDBC15E
:101C3E0000F0B3EC01F0120E0024056E066A000EE1
:101C4E00062205C000F006C001F0000E06BEFF0E13
:101C5E00026E036E003600900136023603360036F1
:101C6E000090013602360336480E0024F66E6B0ED7
:101C7E000120F76E000E0220F86E0900F5CF00F07D
:101C8E000900F5CF01F00900F5CF02F00900F5CFFC
:101C9E0003F0000E046E000E056E000E066E7E0E34
:101CAE00076E23EC01F000C0DCF101C0DDF102C0D3
:101CBE00DEF103C0DFF1640E046EDBC100F0B3ECA5
:101CCE0001F008C000F00A0E046EB3EC01F0090E2C
:101CDE000024056E066A000E062205C000F006C03E
:101CEE0001F0000E06BEFF0E026E036E003600906F
:101CFE0001360236033600360090013602360336C0
:101D0E00480E0024F66E6B0E0120F76E000E0220B8
:101D1E00F86E0900F5CF00F00900F5CF01F00900CB
:101D2E00F5CF02F00900F5CF03F0DCC104F0DDC100
:101D3E0005F0DEC106F0DFC107F023EC01F000C0B4
:101D4E00DCF101C0DDF102C0DEF103C0DFF10A0EED
:101D5E00046EDBC100F0B3EC01F008C000F000C06F
:101D6E0001F0000E026E036E046E01360190023613
:101D7E000336043601360190023603360436480E19
:101D8E000124F66E6B0E0220F76E000E0320F86E25
:101D9E000900F5CF00F00900F5CF01F00900F5CFED
:101DAE0002F00900F5CF03F0DCC104F0DDC105F04F
:101DBE00DEC106F0DFC107F023EC01F0B1D0DB513C
:101DCE000A08D8B07ED00A0E046EDBC100F0B3EC68
:101DDE0001F0090E0024056E066A000E062205C0EB
:101DEE0000F006C001F0000E06BEFF0E026E036E7E
:101DFE00003600900136023603360036009001366A
:101E0E0002360336480E0024F66E6B0E0120F76E76
:101E1E00000E0220F86E0900F5CF00F00900F5CF94
:101E2E0001F00900F5CF02F00900F5CF03F0000E26
:101E3E00046E000E056E000E066E7E0E076E23EC0F
:101E4E0001F000C0DCF101C0DDF102C0DEF103C023
:101E5E00DFF10A0E046EDBC100F0B3EC01F008C036
:101E6E0000F000C001F0000E026E036E046E01362B
:101E7E0001900236033604360136019002360336DF
:101E8E000436480E0124F66E6B0E0220F76E000E1D
:101E9E000320F86E0900F5CF00F00900F5CF01F030
:101EAE000900F5CF02F00900F5CF03F0DCC104F014
:101EBE00DDC105F0DEC106F0DFC107F023EC01F055
:101ECE002FD0DBC100F0000E016E026E036E0036E5
:101EDE000090013602360336003600900136023687
:101EEE000336480E0024F66E6B0E0120F76E000EC0
:101EFE000220F86E0900F5CF00F00900F5CF01F0D1
:101F0E000900F5CF02F00900F5CF03F0000E046EC4
:101F1E00000E056E000E066E7E0E076E23EC01F0AF
:021F2E0012009F
:0E1F3000ACB202D00000FCD7DBC1ADFF120046
:101F3E000B6A0C6A086A0350D8B423EF10F002C083
:101F4E000AF0028E9E0E035E03AE13EF10F0036CCA
:101F5E00080E035CD8A0E0EF0FF0036E083600C049
:101F6E0008F001C000F002C001F0026A080E035C26
:101F7E00D8A0E0EF0FF0036E083600C008F001C0E5
:101F8E0000F0016A080E035CD8A0E0EF0FF0036EBC
:101F9E00083600C008F0006A080E035CD8A0E0EF17
:101FAE000FF0036E0836086A0350D8A4D890ECEFF1
:101FBE000FF00350D8B4ECEF0FF0D890023201328C
:101FCE0000320832032EE4EF0FF00BBC08A0FDEF39
:101FDE000FF0D8A0FDEF0FF0082AD8B4002AD8B41D
:101FEE00012AD8B4022A02BE27EF10F00AAE23EF60
:101FFE0010F0021E011E001E081E082AD8B4002A68
:10200E00D8B4012AD8B4022A23EF10F0026A016A6A
:10201E00006A086A23EF10F00B800BAE2EEF10F063
:10202E00026A0AAE2EEF10F0026E016E006E086E9E
:10203E000A3602322EEF10F00C6A000E2FEF10F05F
:10204E00010E0C6E000E4FEC02F02FEF10F0FF0E93
:10205E000250036E0150026E0050016E0850006E69
:02206E0012005E
:10207000800E0101DB19006E800E000A005CD8B0F2
:102080006DD1DB510008016E01C0DBF1800E01183B
:10209000006E800E6E0A005CD8A0C0D0640E046E84
:1020A000DBC100F0C8EC05F0120E0024056E000E36
:1020B00000BEFF0E066E000E062205C000F006C030
:1020C00001F0000E06BEFF0E026E036E0036009099
:1020D00001360236033600360090013602360336EA
:1020E000480E0024F66E6B0E0120F76E000E0220E3
:1020F000F86E0900F5CFDCF10900F5CFDDF109003C
:10210000F5CFDEF10900F5CFDFF1640E046EDBC11F
:1021100000F0C8EC05F008C000F00A0E046EC8EC30
:1021200005F0090E0024056E000E00BEFF0E066EBF
:10213000000E062205C000F006C001F0000E06BE2B
:10214000FF0E026E036E0036009001360236033633
:1021500000360090013602360336480E0024F66E33
:102160006B0E0120F76E000E0220F86E0900F5CF0D
:1021700000F00900F5CF01F00900F5CF02F00900E9
:10218000F5CF03F0DCC104F0DDC105F0DEC106F0DF
:10219000DFC107F023EC01F000C0DCF101C0DDF18C
:1021A00002C0DEF103C0DFF10A0E046EDBC100F0F5
:1021B000C8EC05F008C000F000C001F0000E00BE41
:1021C000FF0E026E036E046E013601900236033676
:1021D000043601360190023603360436480E0124D7
:1021E000F66E6B0E0220F76E000E0320F86E0900EB
:1021F000F5CF00F00900F5CF01F00900F5CF02F0AE
:102200000900F5CF03F0DCC104F0DDC105F0DEC14B
:1022100006F0DFC107F023EC01F007D2800E0A0AB6
:10222000006E800EDB19005C71E20A0E046EDBC1E9
:1022300000F0C8EC05F0090E0024056E000E00BE8B
:10224000FF0E066E000E062205C000F006C001F06B
:10225000000E06BEFF0E026E036E003600900136C1
:102260000236033600360090013602360336480E39
:102270000024F66E6B0E0120F76E000E0220F86E41
:102280000900F5CFDCF10900F5CFDDF10900F5CF4C
:10229000DEF10900F5CFDFF10A0E046EDBC100F0BC
:1022A000C8EC05F008C000F000C001F0000E00BE50
:1022B000FF0E026E036E046E013601900236033685
:1022C000043601360190023603360436480E0124E6
:1022D000F66E6B0E0220F76E000E0320F86E0900FA
:1022E000F5CF00F00900F5CF01F00900F5CF02F0BD
:1022F0000900F5CF03F0DCC104F0DDC105F0DEC15B
:1023000006F0DFC107F023EC01F08FD1DBC100F054
:10231000000EDBBFFF0E016E026E036E00360090F2
:102320000136023603360036009001360236033697
:10233000480E0024F66E6B0E0120F76E000E022090
:10234000F86E0900F5CF00F00900F5CF01F00900A3
:10235000F5CF02F00900F5CF03F067D1800EDB194D
:10236000006E800E6E0A005CD8A0C0D0640E046EB1
:10237000DBC100F0C8EC05F0120E0024056E000E63
:1023800000BEFF0E066E000E062205C000F006C05D
:1023900001F0000E06BEFF0E026E036E00360090C6
:1023A0000136023603360036009001360236033617
:1023B000140E0024F66E6B0E0120F76E000E022044
:1023C000F86E0900F5CFDCF10900F5CFDDF1090069
:1023D000F5CFDEF10900F5CFDFF1640E046EDBC14D
:1023E00000F0C8EC05F008C000F00A0E046EC8EC5E
:1023F00005F0090E0024056E000E00BEFF0E066EED
:10240000000E062205C000F006C001F0000E06BE58
:10241000FF0E026E036E0036009001360236033660
:1024200000360090013602360336140E0024F66E94
:102430006B0E0120F76E000E0220F86E0900F5CF3A
:1024400000F00900F5CF01F00900F5CF02F0090016
:10245000F5CF03F0DCC104F0DDC105F0DEC106F00C
:10246000DFC107F023EC01F000C0DCF101C0DDF1B9
:1024700002C0DEF103C0DFF10A0E046EDBC100F022
:10248000C8EC05F008C000F000C001F0000E00BE6E
:10249000FF0E026E036E046E0136019002360336A3
:1024A000043601360190023603360436140E012438
:1024B000F66E6B0E0220F76E000E0320F86E090018
:1024C000F5CF00F00900F5CF01F00900F5CF02F0DB
:1024D0000900F5CF03F0DCC104F0DDC105F0DEC179
:1024E00006F0DFC107F023EC01F09FD0800E0A0A4E
:1024F000006E800EDB19005C71E20A0E046EDBC117
:1025000000F0C8EC05F0090E0024056E000E00BEB8
:10251000FF0E066E000E062205C000F006C001F098
:10252000000E06BEFF0E026E036E003600900136EE
:102530000236033600360090013602360336140E9A
:102540000024F66E6B0E0120F76E000E0220F86E6E
:102550000900F5CFDCF10900F5CFDDF10900F5CF79
:10256000DEF10900F5CFDFF10A0E046EDBC100F0E9
:10257000C8EC05F008C000F000C001F0000E00BE7D
:10258000FF0E026E036E046E0136019002360336B2
:10259000043601360190023603360436140E012447
:1025A000F66E6B0E0220F76E000E0320F86E090027
:1025B000F5CF00F00900F5CF01F00900F5CF02F0EA
:1025C0000900F5CF03F0DCC104F0DDC105F0DEC188
:1025D00006F0DFC107F023EC01F027D0DBC100F0EB
:1025E000000EDBBFFF0E016E026E036E0036009020
:1025F00001360236033600360090013602360336C5
:10260000140E0024F66E6B0E0120F76E000E0220F1
:10261000F86E0900F5CF00F00900F5CF01F00900D0
:0C262000F5CF02F00900F5CF03F0120026
:10262C000B6A0C6A0A6A086A0350D8B49EEF13F05E
:10263C00028E9E0E035E03BE29EF13F0D8B429EF71
:10264C0013F08EEF13F0036C080E035CD8A05BEF55
:10265C0013F0036E083600C008F001C000F002C091
:10266C0001F0026A080E035CD8A05BEF13F0036E56
:10267C00083600C008F001C000F0016A080E035CC7
:10268C00D8A05BEF13F0036E083600C008F0006AA8
:10269C00080E035CD8A05BEF13F0036E0836086AD3
:1026AC000350D8A4D89067EF13F00350D8B467EF59
:1026BC0013F0D8900232013200320832032E5FEF51
:1026CC0013F00BBC08A078EF13F0D8A078EF13F040
:1026DC00082AD8B4002AD8B4012AD8B4022A02BED7
:1026EC00A2EF13F00AAE9EEF13F0021E011E001EA5
:1026FC00081E082AD8B4002AD8B4012AD8B4022A51
:10270C009EEF13F0026A016A006A086A9EEF13F0EA
:10271C000B800BAEA8EF13F0026A0AAEA8EF13F011
:10272C00026E016E006E086E0A360232A8EF13F0CC
:10273C00000E0C6AA9EF13F0010E0C6E4FEC02F0B8
:10274C00A9EF13F0FF0E0250036E0150026E005001
:08275C00016E0850006E12002E
:102764000050086E0150006E0250016E0350026E5C
:10277400036A0B6A0C6A9E0E036E0A6A020E0C6EE2
:0627840032EC00F012002F
:10278A000450000A12E10550000A0FE10650000A3F
:10279A000CE10750000A09E1FF0E006EFF0E016E00
:1027AA007F0E026EFF0E036EA8D0086A096A0750F0
:1027BA00D8B470EF14F00350D8B475EF14F0025087
:1027CA0006180A6E028E068E0E6A02C008F001C052
:1027DA000CF000C00DF004500D5E0550D8A0053C69
:1027EA000C5E0650D8A0063C085E086A0C6A0D6AA0
:1027FA00D8A007EF14F0D890023201320032083222
:10280A00010E0E6E0750035ED8A014EF14F07E0E70
:10281A000E240326D8B07AEF14F01AEF14F07E0EC5
:10282A000E240326D8A07FEF14F0180E0B6E0D3677
:10283A000C3608360036013602360E360450005E73
:10284A000550D8A0053C015E0650D8A0063C025EA1
:10285A0006340E120EA035EF14F00D8040EF14F07E
:10286A00045000260550D8B0053C01260650D8B0C1
:10287A00062802260D900B2E1CEF14F066EF14F0BA
:10288A00D8900036013602360E360450005E0550E6
:10289A00D8A0053C015E0650D8A0063C025E06346C
:1028AA000E10010B0D26D8B00C2AD8B4082AD8A4C9
:1028BA0066EF14F008320C320D32032AD8B47AEFDC
:1028CA0014F00AAE089E0850026E0C50016E0D50AC
:1028DA00006E82EF14F0010E5DEC02F082EF14F04C
:1028EA00020E1AEC00F082EF14F0040E0EEC00F067
:0C28FA0082EF14F0080E21EC00F0120038
:10290600220E0C6E086A096A0A6A0B6A0C06D8B4AB
:102916001FD0D8900B320A32093208320332023203
:1029260001320032D8A0F2D70C06D8B409D0045030
:1029360008260550092206500A2207500B22EAD71C
:10294600045008260550092206500A2207500B2279
:0229560012006D
:102958000101B76BB3C1E9FFB4C1EAFFEE5216E05B
:10296800B5C1DBF1B6C1DCF1B3C1E9FFB4C1EAFF1F
:10297800EECFDDF1EDEC0DF0000E011802E1000ED6
:10298800001804E1B34BB42BB72BE4D7B7C100F060
:0229980012002B
:10299A000101B76BB86BB3C1E9FFB4C1EAFFEE52EC
:1029AA0017E0B5C1DBF1B6C1DCF1B3C1E9FFB4C1CF
:1029BA00EAFFEECFDDF1EDEC0DF0000E011802E1B9
:1029CA00000E001805E0B34BB42BB74BB82BE3D776
:0A29DA00B7C100F0B8C101F012000F
:0E29E40073C000F074C001F00BEC0EF0120096
:1029F200B3C102F0B4C103F002C000F003C001F0A1
:102A0200024A032A00C0E9FF01C0EAFFEE5201E0D8
:102A1200F3D70101B351025C006EB4510358016E49
:0A2A2200010E005E000E015A1200C2
:102A2C000101D36BD46BC76BC86BB5C100F0B6C1D9
:102A3C0001F0B7C102F0010EB527000EB623B72383
:102A4C0000C0F6FF01C0F7FF02C0F8FF0900F5CF88
:102A5C0000F000C0C4F10052D8B424EF25F0C451EA
:102A6C00250A0BE0B3C1E1FFB4C1E2FFC4C1E6FF2C
:102A7C00B34BB42BD34BD42BD8D7C56BC66BC76B0E
:102A8C00C86B23D0C787010EB527000EB623B7231A
:102A9C0059D0C781010EB527000EB623B72352D0EB
:102AAC00C783010EB527000EB623B7234BD0C887BA
:102ABC00010EB527000EB623B72344D0C785010EEF
:102ACC00B527000EB623B7233DD0B5C1F6FFB6C16E
:102ADC00F7FFB7C1F8FF0900F5CF01F001502D0A3F
:102AEC00D1E0B5C1F6FFB6C1F7FFB7C1F8FF0900D9
:102AFC00F5CF01F00150200ACCE0B5C1F6FFB6C10C
:102B0C00F7FFB7C1F8FF0900F5CF01F001502B0A10
:102B1C00C7E0B5C1F6FFB6C1F7FFB7C1F8FF0900B2
:102B2C00F5CF01F00150230AC2E0B5C1F6FFB6C1E2
:102B3C00F7FFB7C1F8FF0900F5CF01F00150300ADB
:102B4C00BDE001D09ED7C7A301D0C791C7A701D0C4
:102B5C00C795B5C1F6FFB6C1F7FFB7C1F8FF0900BD
:102B6C00F5CF00F0000E016E00C0E7F161EC02F051
:102B7C00005236E0C56BC66BC5C100F0C6C101F092
:102B8C000A0E046E000E056E8DEC03F0B5C1F6FF57
:102B9C00B6C1F7FFB7C1F8FF0900F5CF02F002503C
:102BAC000024C56F000E0120C66F300EC55F000EED
:102BBC00C65B010EB527000EB623B723B5C1F6FFD1
:102BCC00B6C1F7FFB7C1F8FF0900F5CF00F0000E52
:102BDC00016E00C0E7F161EC02F00052CDE133D0A0
:102BEC00B5C1F6FFB6C1F7FFB7C1F8FF0900F5CFC5
:102BFC0001F001502A0A27E1B8C1E9FFB9C1EAFF87
:102C0C00EECF00F0EECF01F000C0E9FF01C0EAFF0B
:102C1C00EECFC5F1EECFC6F1B8C1E9FFB9C1EAFFFD
:102C2C00020EEE24006E000EEE20016EB8C1E1FF24
:102C3C00B9C1E2FF00C0E6FF01C0E6FF010EB527F7
:102C4C00000EB623B723B5C1F6FFB6C1F7FFB7C167
:102C5C00F8FF0900F5CF01F001502E0A70E1010ECA
:102C6C00B527000EB623B723B5C1F6FFB6C1F7FFE3
:102C7C00B7C1F8FF0900F5CF01F001502A0A28E18D
:102C8C00B8C1E9FFB9C1EAFFEECF00F0EECF01F019
:102C9C0000C0E9FF01C0EAFFEECFC2F1EECFC3F1F5
:102CAC00B8C1E9FFB9C1EAFF020EEE24006E000EB6
:102CBC00EE20016EB8C1E1FFB9C1E2FF00C0E6FF32
:102CCC0001C0E6FF010EB527000EB623B72336D0A0
:102CDC00C26BC36BB5C1F6FFB6C1F7FFB7C1F8FF46
:102CEC000900F5CF00F0000E016E00C0E7F161ECB9
:102CFC0002F0005223E0C2C100F0C3C101F00A0E81
:102D0C00046E000E056E8DEC03F0B5C1F6FFB6C176
:102D1C00F7FFB7C1F8FF0900F5CF02F0025000240D
:102D2C00C26F000E0120C36F300EC25F000EC35B7A
:102D3C00010EB527000EB623B723CCD703D0C26B38
:102D4C00C36BC889B5C100F0B6C101F0B7C102F0C0
:102D5C00010EB527000EB623B72300C0F6FF01C045
:102D6C00F7FF02C0F8FF0900F5CFC4F1F9D0D3C1C9
:102D7C0000F0D4C101F028EF25F0C789E3D7C8854E
:102D8C002ED1C78BC8812BD1C88329D1C78D27D110
:102D9C0026D1C78BC78F23D1B8C1E9FFB9C1EAFFD0
:102DAC00EECF00F0EECF01F000C0E9FF01C0EAFF6A
:102DBC00EECFCFF1EECFD0F1B8C1E9FFB9C1EAFF48
:102DCC00020EEE24006E000EEE20016EB8C1E1FF83
:102DDC00B9C1E2FF00C0E6FF01C0E6FF000ED0194A
:102DEC0002E1000ECF1904E11A0ECF6F000ED06F66
:102DFC00D16BD26BD151CF25E96ED251D021EA6E75
:102E0C00EE520BE0010ED125006E000ED221016EA8
:102E1C0000C0D1F101C0D2F1EDD7C251C3110AE00B
:102E2C00D251C35D02E1D151C25D04E2C2C1D1F104
:102E3C00C3C1D2F1C651D25D02E1C551D15D05E2EB
:102E4C00D151C55FD251C65B02D0C56BC66BC7B73B
:102E5C0016D0C5C100F0C6C101F0010EC55F000E51
:102E6C00C65B005001100BE0B3C1E1FFB4C1E2FF3F
:102E7C00200EE66EB34BB42BD34BD42BEAD7D1C177
:102E8C0002F0D2C103F0010ED15D006E000ED259DA
:102E9C00016E00C0D1F101C0D2F10250031019E053
:102EAC00CFC1E9FFD0C1EAFFB3C1E1FFB4C1E2FF7A
:102EBC00EECFE6FFB34BB42B010ECF25006E000E08
:102ECC00D021016E00C0CFF101C0D0F1D34BD42B77
:102EDC00D6D7C7A716D0C5C100F0C6C101F0010EE8
:102EEC00C55F000EC65B005001100BE0B3C1E1FFE3
:102EFC00B4C1E2FF200EE66EB34BB42BD34BD42BF4
:102F0C00EAD793D5B8C1E9FFB9C1EAFFEECF00F01B
:102F1C00EECF01F000C0E9FF01C0EAFFEECFC4F133
:102F2C00B8C1E9FFB9C1EAFF020EEE24006E000E33
:102F3C00EE20016EB8C1E1FFB9C1E2FF00C0E6FFAF
:102F4C0001C0E6FFC40ECF6F010ED06F010ED16F22
:102F5C00000ED26F62D7C00EC713000EC8133FD03D
:102F6C00C451000AD8B403D7C4516C0AD8B405D7DD
:102F7C00C4514C0AD8B401D7C451660AD8B4FFD690
:102F8C00C451450AD8B4FDD6C451650AD8B4FAD692
:102F9C00C451670AD8B4F8D6C4516F0AD8B4F6D65F
:102FAC00C451640AD8B4F4D6C451690AD8B4F0D662
:102FBC00C451700AD8B4EDD6C451580AD8B4E9D665
:102FCC00C451780AD8B4E6D6C451730AD8B4E4D63E
:102FDC00C451630A97E0C451750ABDE0B3D7000E23
:102FEC00C715006EC851070B016E00500110D8B404
:102FFC00CBEF20F0C8A904D0060EC26F000EC36F31
:10300C00B8C1E9FFB9C1EAFFEECF00F0EECF01F095
:10301C0000C0E9FF01C0EAFFEECFC9F1EECFCAF163
:10302C00EECFCBF1EECFCCF1B8C1E9FFB9C1EAFFDD
:10303C00040EEE24006E000EEE20016EB8C1E1FF0E
:10304C00B9C1E2FF00C0E6FF01C0E6FF046A056AF1
:10305C00066A076AC9C100F0CAC101F0CBC102F00F
:10306C00CCC103F0DBEC06F0010ED8B0000E006E04
:10307C00005205E0CB7F030EC713000EC813CD6BB7
:10308C00CE6BC9C100F0CAC101F0CBC102F0CCC1FA
:10309C0003F0046A056A066A076A42EC07F0000E40
:1030AC00D8A4010E006E0052D8B48AD0CCC100F066
:1030BC00016A026A036AFF0E0016000E01167E0EEC
:1030CC00005E000E015A00C0CDF101C0CEF1010E20
:1030DC00005E000E015A00C0CDF101C0CEF1030E0E
:1030EC00046E000E056E8DEC03F000C0CDF101C036
:1030FC00CEF10A0E046E000E056E78EC06F000C0E0
:10310C00CDF101C0CEF1800E0118026E800E025C72
:10311C0002E1000E005C05E2010E0101CD5F000E24
:10312C00CE5B0101CD510008DB6F38EC10F0C9C14A
:10313C0004F0CAC105F0CBC106F0CCC107F023ECFA
:10314C0001F000C0CFF101C0D0F102C0D1F103C039
:10315C00D2F1000E046E000E056E000E066E7F0E90
:10316C00076ECFC100F0D0C101F0D1C102F0D2C1C5
:10317C0003F0DBEC06F0010ED8B0000E006E00522E
:10318C0005E0010ECD5F000ECE5B1AD0000E046E72
:10319C00000E056E200E066E820E076ECFC100F07B
:1031AC00D0C101F0D1C102F0D2C103F0DBEC06F0CA
:1031BC00000ED8B0010E006E005202E0CD4BCE2BAB
:1031CC00800E006E800ECE19005C02E1CD5100081D
:1031DC0003E3010EC46F02D0CDC1C4F1C8B118D045
:1031EC00C8A315D0800ECE19006E7F0E005C02E1D4
:1031FC00FC0ECD5D0BE3800ECE19006E800EC31954
:10320C00005C02E1C251CD5D01E201D001D0EFD3EF
:10321C00C251C31106E0C8A304D0010EC25F000E58
:10322C00C35BC351000802E1C251080803E2080E57
:10323C00C46F02D0C2C1C4F1C9C100F0CAC101F04F
:10324C00CBC102F0CCC103F0046A056A066A076AB6
:10325C0042EC07F0000ED8A4010E006E0052D8B458
:10326C004BD1CDC1DBF138EC10F000C004F001C043
:10327C0005F002C006F003C007F0C9C100F0CAC1D6
:10328C0001F0CBC102F0CCC103F0C5EC13F000C0CF
:10329C00C9F101C0CAF102C0CBF103C0CCF10101EC
:1032AC00C4510008DB6F38EC10F000C004F001C012
:1032BC0005F002C006F003C007F0C9C100F0CAC196
:1032CC0001F0CBC102F0CCC103F0C5EC13F000C08F
:1032DC00D5F101C0D6F102C0D7F103C0D8F1D5C1E8
:1032EC00C9F1D6C1CAF1D7C1CBF1D8C1CCF1D5C186
:1032FC0000F0D6C101F0D7C102F0D8C103F016EC32
:10330C0013F0B2EC13F000C004F001C005F002C0E1
:10331C0006F003C007F0D5C100F0D6C101F0D7C14B
:10332C0002F0D8C103F075EC06F0000E046E000E2E
:10333C00056E000E066E7E0E076EDBEC06F0000EC0
:10334C00D8B0010E006E00521AE0C9C100F0CAC11B
:10335C0001F0CBC102F0CCC103F0000E046E000EE4
:10336C00056E000E066E7E0E076EB5EC03F000C007
:10337C00C9F101C0CAF102C0CBF103C0CCF1C9C183
:10338C0000F0CAC101F0CBC102F0CCC103F016ECC5
:10339C0013F00101C451010F096E0A6A000E0A22D2
:1033AC0009C004F00AC005F0000E0ABEFF0E066E3E
:1033BC00076E04360490053606360736043604903C
:1033CC00053606360736D40E0424F66E6B0E052031
:1033DC00F76E000E0620F86E0900F5CF05F0090017
:1033EC00F5CF06F00900F5CF07F00900F5CF08F08E
:1033FC000850035C08E10750025C05E10650015CD3
:10340C0002E10550005C1EE30101C9C100F0CAC114
:10341C0001F0CBC102F0CCC103F0CD0E046ECC0E8A
:10342C00056E4C0E066E7B0E076E23EC01F000C091
:10343C00C9F101C0CAF102C0CBF103C0CCF1CD4B34
:10344C00CE2B5AD0C9C100F0CAC101F0CBC102F0D9
:10345C00CCC103F016EC13F0C4C104F0000E056EE1
:10346C00066E076E043604900536063607360436AB
:10347C000490053606360736D40E0424F66E6B0E11
:10348C000520F76E000E0620F86E0900F5CF05F04A
:10349C000900F5CF06F00900F5CF07F00900F5CFCC
:1034AC0008F00850035C08E10750025C05E1065087
:1034BC00015C02E10550005C1FE20101C9C100F092
:1034CC00CAC101F0CBC102F0CCC103F0000E046EF6
:1034DC00000E056E200E066E820E076E23EC01F0B8
:1034EC0000C0C9F101C0CAF102C0CBF103C0CCF1DC
:1034FC00010ECD5F000ECE5B0101C8A393D0C8B7FF
:10350C0091D0800E000A006E800EC319005C02E19F
:10351C00C2510A0804E20A0EC26F000EC36FC9C181
:10352C0000F0CAC101F0CBC102F0CCC103F016EC23
:10353C0013F000C0CFF101C0D0F102C0D1F103C033
:10354C00D2F1CF51D011D111D21142E00A0E046E3A
:10355C00000E056E066E076ECFC100F0D0C101F0F3
:10356C00D1C102F0D2C103F077EC0CF008C000F02E
:10357C0009C001F00AC002F00BC003F0000E046E8B
:10358C00031808E10450021805E10450011802E187
:10359C000050000A1DE1010EC25F000EC35B0A0E53
:1035AC00046E000E056E066E076ECFC100F0D0C122
:1035BC0001F0D1C102F0D2C103F077EC0CF000C0E5
:1035CC00CFF101C0D0F102C0D1F103C0D2F1B9D713
:1035DC00800EC319006E800E005C02E1C451C25D06
:1035EC0021E2C251C45DDB6F38EC10F000C004F076
:1035FC0001C005F002C006F003C007F0C9C100F01D
:10360C00CAC101F0CBC102F0CCC103F0C5EC13F080
:10361C0000C0C9F101C0CAF102C0CBF103C0CCF1AA
:10362C00C2C1C4F1050E0101C225006E000EC321FA
:10363C00016E0050C55F0150C65BC251C31103E15E
:10364C00C8B701D004D0010EC55F000EC65B030ED7
:10365C00C715006EC8C101F0000E01160050011014
:10366C0004E0010EC55F000EC65BC7A539D0C7A329
:10367C0012D0C7A103D02D0EBA6F02D02B0EBA6F89
:10368C00B3C1E1FFB4C1E2FFBAC1E6FFB34BB42B47
:10369C00D34BD42B0CD0C7A10AD0B3C1E1FFB4C11A
:1036AC00E2FF200EE66EB34BB42BD34BD42B800E23
:1036BC00006E800EC619005C02E1C55100080FE2D5
:1036CC00B3C1E1FFB4C1E2FF300EE66EB34BB42BD5
:1036DC00D34BD42B010EC55F000EC65BE8D73AD096
:1036EC00C7B718D0800E006E800EC619005C02E1C0
:1036FC00C55100080FE2B3C1E1FFB4C1E2FF200ED7
:10370C00E66EB34BB42BD34BD42B010EC55F000E1E
:10371C00C65BE8D7C7A312D0C7A103D02D0EBB6FD1
:10372C0002D02B0EBB6FB3C1E1FFB4C1E2FFBBC132
:10373C00E6FFB34BB42BD34BD42B0CD0C7A10AD080
:10374C00B3C1E1FFB4C1E2FF200EE66EB34BB42B64
:10375C00D34BD42BC9C100F0CAC101F0CBC102F0CC
:10376C00CCC103F016EC13F000C0CFF101C0D0F1C6
:10377C0002C0D1F103C0D2F1C4C100F0000E016E41
:10378C00026E036E003600900136023603360036A8
:10379C000090013602360336D40E0024F66E6B0E02
:1037AC000120F76E000E0220F86E0900F5CF04F030
:1037BC000900F5CF05F00900F5CF06F00900F5CFAB
:1037CC0007F0CFC100F0D0C101F0D1C102F0D2C1DD
:1037DC0003F077EC0CF0300E0026B3C1E1FFB4C15E
:1037EC00E2FF00C0E6FFB34BB42BD34BD42BC2513A
:1037FC00C31103E1C8B701D06FD0B3C1E1FFB4C1AD
:10380C00E2FF2E0EE66EB34BB42BD34BD42BC4512C
:10381C00C25F000EC35BC4534DE0C407C4C100F0CB
:10382C00000E016E026E036E0036009001360236F9
:10383C00033600360090013602360336D40E0024CF
:10384C00F66E6B0E0120F76E000E0220F86E09006A
:10385C00F5CF04F00900F5CF05F00900F5CF06F01F
:10386C000900F5CF07F0CFC100F0D0C101F0D1C1F4
:10387C0002F0D2C103F077EC0CF00A0E046E000ECD
:10388C00056E066E076E77EC0CF008C000F009C0F0
:10389C0001F00AC002F00BC003F0300E0026B3C1D9
:1038AC00E1FFB4C1E2FF00C0E6FFB34BB42BD34B36
:1038BC00D42BB1D7C251C3110FE0B3C1E1FFB4C1D6
:1038CC00E2FF300EE66EB34BB42BD34BD42B010E70
:1038DC00C25F000EC35BEED7C7AB0BD0B3C1E1FF29
:1038EC00B4C1E2FF450EE66EB34BB42BD34BD42BD5
:1038FC000AD0B3C1E1FFB4C1E2FF650EE66EB34B73
:10390C00B42BD34BD42B800ECE19006E800E005CE2
:10391C0002E1000ECD5D11E2CD510008CD6FCE510C
:10392C00000ECE57B3C1E1FFB4C1E2FF2D0EE66E1F
:10393C00B34BB42BD34BD42B0AD0B3C1E1FFB4C1DE
:10394C00E2FF2B0EE66EB34BB42BD34BD42B0A0EEB
:10395C00046E000E056ECDC100F0CEC101F078EC06
:10396C0006F0300E0026B3C1E1FFB4C1E2FF00C087
:10397C00E6FF0101B34BB42BD34BD42B0A0E046ED0
:10398C00000E056ECDC100F0CEC101F078EC06F052
:10399C0008C000F009C001F0300E0026B3C1E1FFF1
:1039AC00B4C1E2FF00C0E6FF0101B34BB42BD34B13
:1039BC00D42BC7A71AD0800E006E800EC619005CDF
:1039CC0002E1C551000811E2B3C1E1FFB4C1E2FF4D
:1039DC00200EE66EB34BB42BD34BD42B010EC55F2C
:1039EC00000EC65BC551C611EFE11BEF15F0C8A365
:1039FC00F3D0800ECE19006E800E005C02E1000E3A
:103A0C00CD5D0AE2010ECD5D006E000ECE59016E49
:103A1C000050C25F0150C35BC9C100F0CAC101F0C4
:103A2C00CBC102F0CCC103F016EC13F000C0CFF107
:103A3C0001C0D0F102C0D1F103C0D2F1010EC46FAC
:103A4C00C4510A0A34E0C4C100F0000E016E026ECB
:103A5C00036E0036009001360236033600360090B5
:103A6C00013602360336D40E0024F66E6B0E01209E
:103A7C00F76E000E0220F86E0900F5CF01F0090078
:103A8C00F5CF02F00900F5CF03F00900F5CF04F0F3
:103A9C000450D25D08E10350D15D05E10250D05DC8
:103AAC0002E10150CF5D01E202D0C42BC9D7C45151
:103ABC00C25DD96F000EC359DA6FD9C1C2F1DAC138
:103ACC00C3F1CFC100F0D0C101F0D1C102F0D2C11D
:103ADC0003F0B2EC13F000C004F001C005F002C01A
:103AEC0006F003C007F0C9C100F0CAC101F0CBC198
:103AFC0002F0CCC103F075EC06F000C0D5F101C0AA
:103B0C00D6F102C0D7F103C0D8F1D9C1DBF138EC42
:103B1C0010F0D5C104F0D6C105F0D7C106F0D8C15C
:103B2C0007F023EC01F0000E046E000E056E000E83
:103B3C00066E7E0E076EB5EC03F016EC13F000C0AB
:103B4C00CFF101C0D0F102C0D1F103C0D2F1C2510A
:103B5C00C31142E00A0E046E000E056E066E076E6F
:103B6C00CFC100F0D0C101F0D1C102F0D2C103F03D
:103B7C0077EC0CF008C000F009C001F00AC002F0AC
:103B8C000BC003F0000E046E031808E10450021879
:103B9C0005E10450011802E10050000A1DE10A0E73
:103BAC00046E000E056E066E076ECFC100F0D0C11C
:103BBC0001F0D1C102F0D2C103F077EC0CF000C0DF
:103BCC00CFF101C0D0F102C0D1F103C0D2F1010E8E
:103BDC00C25F000EC35BBBD7800E006E800EC31994
:103BEC00005C02E1C2510C0816E3C2C1DBF117EC18
:103BFC000EF0C9C104F0CAC105F0CBC106F0CCC1AE
:103C0C0007F0B5EC03F000C0C9F101C0CAF102C065
:103C1C00CBF103C0CCF1C9C100F0CAC101F0CBC1DA
:103C2C0002F0CCC103F0046A056A066A076A42EC2A
:103C3C0007F0000ED8A4010E006E0052D8B477D055
:103C4C00C9C100F0CAC101F0CBC102F0CCC103F074
:103C5C0016EC13F0000E046E031808E10450021861
:103C6C0005E10450011802E10050000A60E1800EE9
:103C7C00006E800ECE19005C02E1CD51010857E2B6
:103C8C00CDC1DBF138EC10F000C004F001C005F040
:103C9C0002C006F003C007F0C9C100F0CAC101F0B0
:103CAC00CBC102F0CCC103F0C5EC13F05F0E046E77
:103CBC00700E056E090E066E810E076EDBEC06F0BB
:103CCC00010ED8B0000E006E005206E0090E010184
:103CDC00CD5F000ECE5B05D00101080ECD5F000E4E
:103CEC00CE5BCDC1DBF138EC10F000C004F001C0AC
:103CFC0005F002C006F003C007F0C9C100F0CAC14C
:103D0C0001F0CBC102F0CCC103F0C5EC13F016EC02
:103D1C0013F000C0CFF101C0D0F102C0D1F103C04B
:103D2C00D2F10101C96BCA6BCB6BCC6B38D0C9C15A
:103D3C0000F0CAC101F0CBC102F0CCC103F016EC0B
:103D4C0013F000C0CFF101C0D0F102C0D1F103C01B
:103D5C00D2F1CFC100F0D0C101F0D1C102F0D2C17B
:103D6C0003F0B2EC13F000C004F001C005F002C087
:103D7C0006F003C007F0C9C100F0CAC101F0CBC105
:103D8C0002F0CCC103F075EC06F000C0C9F101C023
:103D9C00CAF102C0CBF103C0CCF1CD6BCE6B010EDE
:103DAC00C46FC4510A0A34E0C4C100F0000E016EA5
:103DBC00026E036E00360090013602360336003672
:103DCC000090013602360336D40E0024F66E6B0ECC
:103DDC000120F76E000E0220F86E0900F5CF01F0FD
:103DEC000900F5CF02F00900F5CF03F00900F5CF7B
:103DFC0004F00450D25D08E10350D15D05E102509E
:103E0C00D05D02E10150CF5D01E202D0C42BC9D7D5
:103E1C00C451C225006E000EC321016ECD51002687
:103E2C00CE5101220050C55F0150C65BC8B704D00B
:103E3C00C251C31101E104D0010EC55F000EC65B77
:103E4C00030EC715006EC8C101F0000E011600501C
:103E5C00011004E0010EC55F000EC65BC7A539D08A
:103E6C00C7A312D0C7A103D02D0EBC6F02D02B0E4E
:103E7C00BC6FB3C1E1FFB4C1E2FFBCC1E6FFB34B01
:103E8C00B42BD34BD42B0CD0C7A10AD0B3C1E1FFB8
:103E9C00B4C1E2FF200EE66EB34BB42BD34BD42B44
:103EAC00800E006E800EC619005C02E1C551000840
:103EBC000FE2B3C1E1FFB4C1E2FF300EE66EB34BCB
:103ECC00B42BD34BD42B010EC55F000EC65BE8D7C9
:103EDC003AD0C7B718D0800E006E800EC619005CA1
:103EEC0002E1C55100080FE2B3C1E1FFB4C1E2FF2A
:103EFC00200EE66EB34BB42BD34BD42B010EC55F07
:103F0C00000EC65BE8D7C7A312D0C7A103D02D0EF5
:103F1C00BD6F02D02B0EBD6FB3C1E1FFB4C1E2FF88
:103F2C00BDC1E6FFB34BB42BD34BD42B0CD0C7A1E4
:103F3C000AD0B3C1E1FFB4C1E2FF200EE66EB34B71
:103F4C00B42BD34BD42BC4C100F0C40700524CE0AB
:103F5C00C4C100F0000E016E026E036E00360090BC
:103F6C00013602360336003600900136023603362F
:103F7C00D40E0024F66E6B0E0120F76E000E02209C
:103F8C00F86E0900F5CF04F00900F5CF05F0090033
:103F9C00F5CF06F00900F5CF07F0CFC100F0D0C186
:103FAC0001F0D1C102F0D2C103F077EC0CF00A0E93
:103FBC00046E000E056E066E076E77EC0CF008C0F2
:103FCC0000F009C001F00AC002F00BC003F0300E83
:103FDC000026B3C1E1FFB4C1E2FF00C0E6FFB34B62
:103FEC00B42BD34BD42BAFD7800E006E800ECE19D2
:103FFC00005C02E1CD5100080FE2B3C1E1FFB4C196
:10400C00E2FF300EE66EB34BB42BD34BD42B010E28
:10401C00CD5F000ECE5BE8D7800E000A006E800EDE
:10402C00C319005C02E1C251080803E2080EC46F18
:10403C0002D0C2C1C4F1C451C25F000EC35BC453F1
:10404C0003E1C8B701D00AD0B3C1E1FFB4C1E2FFAC
:10405C002E0EE66EB34BB42BD34BD42BC4C1DBF179
:10406C0038EC10F0C9C104F0CAC105F0CBC106F0A0
:10407C00CCC107F023EC01F09FEC0FF000C0CFF1A6
:10408C0001C0D0F102C0D1F103C0D2F1C4534DE054
:10409C00C407C4C100F0000E016E026E036E003640
:1040AC000090013602360336003600900136023697
:1040BC000336D40E0024F66E6B0E0120F76E000E44
:1040CC000220F86E0900F5CF04F00900F5CF05F0D9
:1040DC000900F5CF06F00900F5CF07F0CFC100F0CD
:1040EC00D0C101F0D1C102F0D2C103F077EC0CF0D9
:1040FC000A0E046E000E056E066E076E77EC0CF061
:10410C0008C000F009C001F00AC002F00BC003F0B7
:10411C00300E0026B3C1E1FFB4C1E2FF00C0E6FFE0
:10412C00B34BB42BD34BD42BB1D7C251C3110FE02B
:10413C00B3C1E1FFB4C1E2FF300EE66EB34BB42B5A
:10414C00D34BD42B010EC25F000EC35BEED7C7A7B7
:10415C001AD0800E006E800EC619005C02E1C551AB
:10416C00000811E2B3C1E1FFB4C1E2FF200EE66E1C
:10417C00B34BB42BD34BD42B010EC55F000EC65BD7
:10418C00C551C611EFE11BEF15F0C00EC715016E3E
:10419C00C8C102F0000E0216000E021802E1000E59
:1041AC000118D8A480D0C7A927D0B8C1E9FFB9C1DC
:1041BC00EAFFEECF00F0EECF01F000C0E9FF01C046
:1041CC00EAFFEECFCFF1EECFD0F1EECFD1F1EECFC3
:1041DC00D2F1B8C1E9FFB9C1EAFF040EEE24006EBA
:1041EC00000EEE20016EB8C1E1FFB9C1E2FF00C0C4
:1041FC00E6FF01C0E6FF2FD0B8C1E9FFB9C1EAFF65
:10420C00EECF00F0EECF01F000C0E9FF01C0EAFFF5
:10421C00EECF00F0EECF01F0000E01BEFF0E026EED
:10422C00036E00C0CFF101C0D0F102C0D1F103C0C8
:10423C00D2F1B8C1E9FFB9C1EAFF020EEE24006E5B
:10424C00000EEE20016EB8C1E1FFB9C1E2FF00C063
:10425C00E6FF01C0E6FF800ED219006E800E005CF6
:10426C0008E1000ED15D05E1000ED05D02E1000E0B
:10427C00CF5D18E2030EC713000EC813006A016A63
:10428C00026A036ACF51005ED051015AD151025AD1
:10429C00D251035A00C0CFF101C0D0F102C0D1F10C
:1042AC0003C0D2F14ED0C7A927D0B8C1E9FFB9C11C
:1042BC00EAFFEECF00F0EECF01F000C0E9FF01C045
:1042CC00EAFFEECFCFF1EECFD0F1EECFD1F1EECFC2
:1042DC00D2F1B8C1E9FFB9C1EAFF040EEE24006EB9
:1042EC00000EEE20016EB8C1E1FFB9C1E2FF00C0C3
:1042FC00E6FF01C0E6FF25D0B8C1E9FFB9C1EAFF6E
:10430C00EECF00F0EECF01F000C0E9FF01C0EAFFF4
:10431C00EECFCFF1EECFD0F1000ED16FD26FB8C18E
:10432C00E9FFB9C1EAFF020EEE24006E000EEE208A
:10433C00016EB8C1E1FFB9C1E2FF00C0E6FF01C0E8
:10434C00E6FF000EC31902E1000EC2190FE1000EC8
:10435C00006ED21908E10050D11905E10050D019B6
:10436C0002E1CF51000A02E1C24BC32BC00EC715AC
:10437C00006E00C005F0AED0010EC46FC4510A0A25
:10438C0034E0C4C100F0000E016E026E036E003604
:10439C0000900136023603360036009001360236A4
:1043AC000336D40E0024F66E6B0E0120F76E000E51
:1043BC000220F86E0900F5CF01F00900F5CF02F0EC
:1043CC000900F5CF03F00900F5CF04F00450D25DDD
:1043DC0008E10350D15D05E10250D05D02E10150CE
:1043EC00CF5D01E202D0C42BC9D782D0010EC46FBD
:1043FC00C451080A34E0C4C100F0000E016E026E14
:10440C00036E0036009001360236033600360090FB
:10441C000136023603361F0E0024F66E6C0E012098
:10442C00F76E000E0220F86E0900F5CF01F00900BE
:10443C00F5CF02F00900F5CF03F00900F5CF04F039
:10444C000450D25D08E10350D15D05E10250D05D0E
:10445C0002E10150CF5D01E202D0C42BC9D748D094
:10446C00010EC46FC4510C0A34E0C4C100F0000E3C
:10447C00016E026E036E0036009001360236033672
:10448C00003600900136023603367C0E0024F66EA0
:10449C006B0E0120F76E000E0220F86E0900F5CFAE
:1044AC0001F00900F5CF02F00900F5CF03F0090087
:1044BC00F5CF04F00450D25D08E10350D15D05E165
:1044CC000250D05D02E10150CF5D01E202D0C42B5D
:1044DC00C9D70ED00550000AD8B44ED70550C00A23
:1044EC00D8B44AD70550800A81E00550400AB8E09C
:1044FC00800E006E800EC319005C02E1C251C45DD7
:10450C0003E2C2C1C4F10DD0800EC319006E800E3F
:10451C00005C02E1C451C25D04E2C4C1C2F1000EF0
:10452C00C36FC551C6110EE0030EC715006EC8C18E
:10453C0001F0000E01160050011004E0010EC55FE1
:10454C00000EC65B800EC319006E800EC619005C8F
:10455C0002E1C551C25D05E2C251C55FC351C65BE4
:10456C0002D0C56BC66BC40EC715016EC851080BC3
:10457C00026E0250080A02E1400E011808E1C55112
:10458C00C61104E0010EC55F000EC65B1CD0C00E48
:10459C00C715016EC851080B026E0250080A02E1E1
:1045AC00800E011810E1800E006E800EC619005CA2
:1045BC0002E1C551020805E2020EC55F000EC65BA2
:1045CC0002D0C56BC66BC7A55DD0C7A312D0C7A15F
:1045DC0003D02D0EBE6F02D02B0EBE6FB3C1E1FF08
:1045EC00B4C1E2FFBEC1E6FFB34BB42BD34BD42B0B
:1045FC0034D0C7A10BD0B3C1E1FFB4C1E2FF200E90
:10460C00E66EB34BB42BD34BD42B27D0C00EC715AF
:10461C00016EC851080B026E0250080A02E1800EAE
:10462C0001181BE1B3C1E1FFB4C1E2FF300EE66E2D
:10463C00B34BB42BD34BD42BC7AB03D0580EBF6F9B
:10464C0002D0780EBF6FB3C1E1FFB4C1E2FFBFC1AE
:10465C00E6FFB34BB42BD34BD42BC551C61111E091
:10466C00B3C1E1FFB4C1E2FF300EE66EB34BB42B25
:10467C00D34BD42B010EC55F000EC65BC551C611C2
:10468C00EFE174D0C551C61113E0C7B711D0B3C157
:10469C00E1FFB4C1E2FF200EE66EB34BB42BD34B5B
:1046AC00D42B010EC55F000EC65BC551C611EFE1E0
:1046BC00C7A312D0C7A103D02D0EC06F02D02B0EF2
:1046CC00C06FB3C1E1FFB4C1E2FFC0C1E6FFB34BA1
:1046DC00B42BD34BD42B0CD0C7A10AD0B3C1E1FF60
:1046EC00B4C1E2FF200EE66EB34BB42BD34BD42BEC
:1046FC00C00EC715016EC851080B026E0250080A95
:10470C0002E1400E01180BE1B3C1E1FFB4C1E2FFBD
:10471C00300EE66EB34BB42BD34BD42B27D0C00E3C
:10472C00C715016EC851080B026E0250080A02E14F
:10473C00800E01181BE1B3C1E1FFB4C1E2FF300EE2
:10474C00E66EB34BB42BD34BD42BC7AB03D0580E64
:10475C00C16F02D0780EC16FB3C1E1FFB4C1E2FFEB
:10476C00C1C1E6FFB34BB42BD34BD42B800E006EE0
:10477C00800EC319005C02E1C251C45D0BE2B3C1EF
:10478C00E1FFB4C1E2FF300EE66EB34BB42BD34B5A
:10479C00D42BECD7C2C100F0C3C101F0010EC25F33
:1047AC00000EC35B00500110D8B42AD1C00EC7153F
:1047BC00006E00C0D5F10AD1C2C100F0C3C101F036
:1047CC00000EC3BFFF0E026E036E00360090013662
:1047DC000236033600360090013602360336D40E0C
:1047EC000024F66E6B0E0120F76E000E0220F86EA0
:1047FC000900F5CF04F00900F5CF05F00900F5CF5D
:10480C0006F00900F5CF07F0CFC100F0D0C101F0E0
:10481C00D1C102F0D2C103F077EC0CF00A0E046E99
:10482C00000E056E066E076E77EC0CF008C000F0FB
:10483C0009C001F00AC002F00BC003F0300E0024D6
:10484C00C46FD3D0C7AB45D0C2C100F0C3C101F017
:10485C00000EC3BFFF0E026E036E003600900136D1
:10486C0002360336003600900136023603361F0E30
:10487C000024F66E6C0E0120F76E000E0220F86E0E
:10488C000900F5CF04F00900F5CF05F00900F5CFCC
:10489C0006F00900F5CF07F0CFC100F0D0C101F050
:1048AC00D1C102F0D2C103F077EC0CF00F0E001660
:1048BC00000E011602160316630E0024F66E6C0E23
:1048CC000120F76E000E0220F86E0900F5CFC4F13E
:1048DC0044D0C2C100F0C3C101F0000EC3BFFF0E33
:1048EC00026E036E00360090013602360336003637
:1048FC0000900136023603361F0E0024F66E6C0E45
:10490C000120F76E000E0220F86E0900F5CF04F0BE
:10491C000900F5CF05F00900F5CF06F00900F5CF39
:10492C0007F0CFC100F0D0C101F0D1C102F0D2C16B
:10493C0003F077EC0CF00F0E0016000E01160216A9
:10494C000316520E0024F66E6C0E0120F76E000E4C
:10495C000220F86E0900F5CFC4F147D0C2C100F0B7
:10496C00C3C101F0000EC3BFFF0E026E036E003612
:10497C0000900136023603360036009001360236BE
:10498C0003367C0E0024F66E6B0E0120F76E000EC3
:10499C000220F86E0900F5CF04F00900F5CF05F000
:1049AC000900F5CF06F00900F5CF07F0CFC100F0F4
:1049BC00D0C101F0D1C102F0D2C103F077EC0CF000
:1049CC00070E0014C46F300EC4270FD0D551000A47
:1049DC00D8B4F2D6D551C00AD8B4EED6D551800A87
:1049EC00D8B430D7D551400AB9E0B3C1E1FFB4C156
:1049FC00E2FFC4C1E6FFB34BB42BD34BD42BCAD6C6
:104A0C00C7A71AD0800E006E800EC619005C02E19A
:104A1C00C551000811E2B3C1E1FFB4C1E2FF200EA1
:104A2C00E66EB34BB42BD34BD42B010EC55F000EEB
:104A3C00C65BC551C611EFE11BEF15F0D3C100F0F9
:064A4C00D4C101F01200CC
:104A52000101B551B61108E0B5C1E1FFB6C1E2FFEF
:104A6200B3C1E6FFB4C1E6FFB3C1E9FFB4C1EAFFD7
:104A7200EECF00F000C0B9F100C0DBF165EC06F04A
:104A8200005203E0B34BB42BEFD7B76B000EB9BFA4
:104A9200FF0E006E000E001802E12D0EB91905E19D
:104AA200010EB76FB34BB42B0CD0000EB9BFFF0E83
:104AB200006E000E001802E12B0EB91902E1B34B91
:104AC200B42BB96BBA6BBB6BBC6BBD6BB86BB7B9B4
:104AD2000BD0B3C1E9FFB4C1EAFFEE502E0A04E1E4
:104AE200B789B34BB42B59D0B3C1E9FFB4C1EAFFC4
:104AF200EECFE7F161EC02F0005201E14FD0B78353
:104B0200000EB9BFFF0E000A02E1080EB91940E01B
:104B1200B7A901D0B807B92BBAC100F0BBC101F0E7
:104B2200BCC102F0BDC103F00A0E046E000E056E98
:104B3200066E076E83EC14F000C0BAF101C0BBF13F
:104B420002C0BCF103C0BDF100000000B3C1E9FF27
:104B5200B4C1EAFF300EEE5C006E016A000E015A2B
:104B6200000E01BEFF0E026E036EBA510026BB514B
:104B72000122BC510222BD51032200C0BAF101C080
:104B8200BBF102C0BCF103C0BDF10000000003D0C4
:104B9200B7B901D0B82BB34BB42B99D7B96BB3C10A
:104BA200E9FFB4C1EAFFEE50650A08E0B3C1E9FFCC
:104BB200B4C1EAFFEE50450A01E068D0B34BB42B12
:104BC200B3C1E9FFB4C1EAFFEE502D0A04E1B78791
:104BD200B34BB42B09D0B3C1E9FFB4C1EAFFEE5025
:104BE2002B0A02E1B34BB42BB3C1E9FFB4C1EAFF14
:104BF200EE50300A03E1B34BB42BF6D7B3C1E9FF51
:104C0200B4C1EAFFEECFE7F161EC02F0005239E005
:104C1200B3C1E9FFB4C1EAFF300EEE5CB96FB34B2A
:104C2200B42BB3C1E9FFB4C1EAFFEECFE7F161EC07
:104C320002F0005226E00A0EB903F3CFB9F1B3C174
:104C4200E9FFB4C1EAFF300EEE5C006E0050B927F6
:104C5200B34BB42BB3C1E9FFB4C1EAFFEECFE7F126
:104C620061EC02F000520DE00A0EB903F3CFB9F184
:104C7200B3C1E9FFB4C1EAFF300EEE5C006E005032
:104C8200B927B7A703D0B9510008B96FB951B827EE
:104C9200000EB61902E1000EB5190AE0B7A308D05A
:104CA200B5C1E1FFB6C1E2FFB3C1E6FFB4C1E6FFA1
:104CB200BAC100F0BBC101F0BCC102F0BDC103F03A
:104CC20043EC06F000C0BAF101C0BBF102C0BCF176
:104CD20003C0BDF1046A056A066A076ABAC100F038
:104CE200BBC101F0BCC102F0BDC103F042EC07F050
:104CF200010ED8A4000E006E005205E0006A016A9F
:104D0200026A036A04D1800EB819006E800E000A8E
:104D1200005CD8B073D0B8510008B86F800EB819D3
:104D2200006E800E0A0A005C1DE3BAC100F0BBC12E
:104D320001F0BCC102F0BDC103F0FF0E046EE60E2D
:104D4200056E5B0E066E5D0E076E23EC01F000C071
:104D5200BAF101C0BBF102C0BCF103C0BDF10A0E41
:104D6200B85FDCD7B851000A1CE0BAC100F0BBC181
:104D720001F0BCC102F0BDC103F0CD0E046ECC0E39
:104D8200056E4C0E066E7B0E076E23EC01F000C022
:104D9200BAF101C0BBF102C0BCF103C0BDF1B8075A
:104DA200E1D7010E046E000E056E000E066E010EB6
:104DB200076EBAC100F0BBC101F0BCC102F0BDC1B7
:104DC20003F0DBEC06F0010ED8B0000E006E0052CC
:104DD20014E0B7A109D0010E006E000E016E800E24
:104DE200026E030E036E93D0010E006E000E016E72
:104DF200000E026E010E036E8AD072D0800E000A7F
:104E0200006E800EB819005C6BE20A0EB85D1DE3FD
:104E1200BAC100F0BBC101F0BCC102F0BDC103F0D8
:104E2200F90E046E020E056E150E066EA00E076ECA
:104E320023EC01F000C0BAF101C0BBF102C0BCF129
:104E420003C0BDF10A0EB85FE0D7B851000A1CE0FA
:104E5200BAC100F0BBC101F0BCC102F0BDC103F098
:104E6200000E046E000E056E200E066E820E076E98
:104E720023EC01F000C0BAF101C0BBF102C0BCF1E9
:104E820003C0BDF1B807E1D7BAC104F0BBC105F058
:104E9200BCC106F0BDC107F0FF0E006EFF0E016E31
:104EA2007F0E026EFF0E036EDBEC06F0010ED8B031
:104EB200000E006E005214E0B7A109D0FF0E006E82
:104EC200FF0E016EFF0E026EFF0E036E20D0FF0E6C
:104ED200006EFF0E016E7F0E026EFF0E036E17D084
:104EE200B7A10DD0000EBA19006E000EBB19016EEB
:104EF200800EBC19026E000EBD19036E08D0BAC135
:104F020000F0BBC101F0BCC102F0BDC103F0120050
:104F1200B3C102F0B4C103F0B6C100F0B7C101F0F1
:104F2200010E0101B65F000EB75B0050011009E0EF
:104F320002C0E1FF03C0E2FFB5C1E6FF024A032A55
:0C4F4200EBD7B3C100F0B4C101F01200C5
:104F4E00B80E0101BC6F010EBD6FB3C1DBF1B4C170
:104F5E00DCF1B5C1DDF1B6C1DEF1B7C1DFF1BC0EDA
:104F6E00E06F010EE16F59EC07F000C0BAF101C01D
:104F7E00BBF100500101B325E16E0150B421E26E88
:0C4F8E00E66ABAC100F0BBC101F01200DD
:104F9A000C6A0E6A0250D8A4E6EF27F001C002F0AC
:104FAA0000C001F0006A0E860250D8A4E6EF27F08E
:104FBA0001C002F0016A0E960E880250D8B4F8EFCA
:104FCA0027F00E50035ED8A4D8A0FEEF27F0D890A1
:104FDA0002BE04EF28F0003601360236032EEDEF4A
:104FEA0027F0FEEF27F0010E0C6E1AEC00F008EF26
:104FFA0028F0020E0C6E21EC00F008EF28F0040EE7
:08500A000C6E2EEC00F0120008
:0C501200240E0D6E0D2EFED700001200C3
:10501E000101B66BB3C1E9FFB4C1EAFFEECFB5F142
:10502E00B551000A0FE0B5C1DBF198EC0FF00101AC
:10503E00B62BB651B325E96E000EB421EA6EEECF53
:06504E00B5F1EED71200DF
:105054000101B66BB76BB3C100F0B4C101F0B5C1C7
:1050640002F0010EB327000EB423B52300C0F6FFEF
:1050740001C0F7FF02C0F8FF0900F5CF01F00150AD
:10508400000A03E0B64BB72BE6D7B6C100F0B7C1B0
:0A50940001F0000E026E036E120020
:10509E00B3C1F6FFB4C1F7FFB5C1F8FF0900F5CFF4
:1050AE0000F0005212E0B3C1F6FFB4C1F7FFB5C174
:1050BE00F8FF0900F5CFDBF198EC0FF0010E0101BE
:0C50CE00B327000EB423B523E3D7120073
:1050DA00A70E0101B16F010EB26FA2C1B3F1A3C154
:1050EA00B4F1A4C1B5F1A5C1B6F1A6C1B7F1B10E2B
:1050FA00B86F010EB96F16EC15F000C0AFF101C020
:10510A00B0F10050A225E16E0150A321E26EE66AD9
:0A511A00AFC100F0B0C101F01200B7
:105124000101796B640E795D14E2818C070E0C6EBB
:105134007D0E0D6E0D2EFED70C2EFCD7819C7C0EA1
:105144000C6E5F0E0D6E0D2EFED70C2EFCD7792B38
:04515400E9D7120085
:10515800A2C1B3F1A3C1B4F10101B56BB66B75DCA3
:02516800120033
:10516A00A2C104F0A3C105F004C002F005C003F017
:10517A00044A052AA4C100F0A5C101F00101A44B0B
:10518A00A52B00C0E9FF01C0EAFF02C0E1FF03C08E
:10519A00E2FFEECFE6FF02C0E9FF03C0EAFFEE52EC
:0E51AA0001E0E2D7A2C100F0A3C101F01200A3
:1051B8000101796B640E795D16E2818C0D0E0C6E1F
:1051C800FB0E0D6E0D2EFED70C2EFCD70000000036
:1051D800819C7C0E0C6E5F0E0D6E0D2EFED70C2E74
:0851E800FCD7792BE7D7120078
:1051F000DA0E0101B36F6C0EB46F000EB56F4FDFA6
:10520000340E0101DB6F98EC0FF02C0E0101DB6F07
:1052100098EC0FF0A2C1B3F1A3C1B4F1F9EC14F012
:10522000290EB36F010EB46F0F0EB56F6D0EB66F12
:10523000000EB76F00C0B8F101C0B9F188DE290EC9
:10524000B36F010EB46FEBDE170EB36F6D0EB46F5C
:10525000000EB56F24DF030E0B6E8A0E0C6E550E1A
:105260000D6E0D2EFED70C2EFCD70B2EFAD700009C
:0E5270000000A2C1B3F1A3C1B4F1D1DE12005F
:10527E000101796B640E795D16E2818E0D0E0C6E56
:10528E00FB0E0D6E0D2EFED70C2EFCD7000000006F
:10529E00819E7C0E0C6E5F0E0D6E0D2EFED70C2EAB
:0852AE00FCD7792BE7D71200B1
:1052B6000101796B640E795D14E2818E070E0C6E26
:1052C6007D0E0D6E0D2EFED70C2EFCD7819E7C0E0C
:1052D6000C6E5F0E0D6E0D2EFED70C2EFCD7792BA5
:0452E600E9D71200F2
:1052EA00000E0101A31902E1000EA21904E169C02E
:1052FA00A2F16AC0A3F1A251A31103E1006A016AF3
:10530A0057D0A2C1E9FFA3C1EAFFEECF00F00052D5
:10531A0003E1006A016A4CD0A2C1B3F1A3C1B4F19E
:10532A00A4C1B5F1A5C1B6F1CDEC14F0A251002685
:10533A00A351012200C0A2F101C0A3F100C0E9FFFC
:10534A0001C0EAFFEECF00F0005208E10001696BEC
:10535A006A6B000E006E000E016E2AD0A2C1B3F174
:10536A00A3C1B4F1A4C1B5F1A5C1B6F1ACEC14F076
:10537A00000E016EA2510026A351012200C069F05D
:10538A0001C06AF000C0E9FF01C0EAFFEE5209E07D
:10539A0069C0E1FF6AC0E2FFE66A0001694B6A2B55
:1053AA0003D00001696B6A6BA2C100F0A3C101F0CE
:0253BA001200DF
:1053BC00300E00016F6F1F0E706FDB0E716F010EE0
:1053CC00726F980E736F030E746F000E756F000E74
:1053DC00766F8E0E6B6F030E6C6F000E6D6F000E82
:1053EC006E6F840E656F030E666F000E676F000E96
:1053FC00686FAC8A900EAB6E948E949C9EAA03D070
:08540C00AECF00F0FBD7120047
:10541400A2C125F1A3C126F1A4C101F0010E006EC1
:10542400015004E000360090FF0FFBD700C05FF08E
:10543400001E00C060F0120E0101A225E96E000EEC
:10544400A321EA6E0050EF16120EE95E0050EF162B
:02545400120044
:105456000900F5CFE6FF0006FBE10106F9E11200BF
:10546600C26A211C006E0050C116070EC012C08E03
:10547600A2C100F000360090003600900050C21223
:10548600C280C4DDC282C2A201D0FDD7C4CF01F062
:0E549600006AC3500012000E0112C2901200F4
:1054A400470E0101B36F010EB46F320EB56FB66BC8
:1054B400B76B2DDD226A236A246A256A276A266A65
:1054C4009E9AAB98AB882550000808E12450010847
:1054D40005E12350040802E122506B08D8A0A1D0B2
:1054E400010E2226000E23222422252289D09EAAE0
:1054F40018D0F2EC14F000C0A2F1470EE16E010ED8
:10550400E26E2750E126D8B0E22A00C0E6FF01018E
:10551400A2516C0A02E0276A03D0272A010E266EE4
:105524009E9A7ED09EAA19D0F2EC14F000C0A2F18B
:10553400470EE16E010EE26E2750E126D8B0E22A52
:1055440000C0E6FF0101A251750A03E0276A266A3A
:1055540003D0272A020E266E9E9A62D09EAA19D0E4
:10556400F2EC14F000C0A2F1470EE16E010EE26EFF
:105574002750E126D8B0E22A00C0E6FF0101A2517B
:10558400650A03E0276A266A03D0272A030E266EDB
:105594009E9A46D09EAA19D0F2EC14F000C0A2F153
:1055A400470EE16E010EE26E2750E126D8B0E22AE2
:1055B40000C0E6FF0101A251220A03E0276A266A1D
:1055C40003D0272A040E266E9E9A2AD09EAA17D0AC
:1055D400F2EC14F000C0A2F1470EE16E010EE26E8F
:1055E4002750E126D8B0E22A00C0E6FF272A0101AD
:1055F400A2517D0A03E1010E006E14D09E9A10D0D0
:105604002650000AD8B473D72650010A8BE02650DE
:10561400020AA4E02650030ABDE02650040AD6E09C
:0656240052D7006A1200DB
:10562A00C20E0101B36F6C0EB46F000EB56F32DD9E
:10563A00340E0101DB6F98EC0FF02C0E0101DB6FC9
:10564A0098EC0FF0A2C1B3F1A3C1B4F1A4C1B5F1B2
:10565A00FCDC290EB36F010EB46F130EB56F6D0E1D
:10566A00B66F000EB76F00C0B8F101C0B9F16ADCBD
:10567A00290EB36F010EB46FCDDC1A0EB36F6D0E27
:10568A00B46F000EB56F06DD030E0B6E8A0E0C6E3C
:10569A00550E0D6E0D2EFED70C2EFCD70B2EFAD7FB
:1056AA0000000000A2C1B3F1A3C1B4F1A4C1B5F1D5
:0456BA00F1DC12000D
:1056BE000050086E0150006E016A026A036A0B6A9E
:1056CE000C6A960E036E0A6A00C001F008C000F064
:0856DE00086A026A5BDC12009D
:1056E6008FEC36F00D0EC16E956A958A200E936E7C
:1056F60092809282949C948E830E0101A26F0F0E6B
:10570600A36FA46B84DEB886B06A2A0EAF6EAC8433
:1057160052DE030E0101B36F6D0EB46F000EB56F4E
:10572600BBDC060E0B6E130E0C6EAD0E0D6E0D2E43
:10573600FED70C2EFCD70B2EFAD700000000A60EC3
:105746000101B36F6C0EB46F000EB56FA5DC060ECB
:105756000B6E130E0C6EAD0E0D6E0D2EFED70C2EAF
:10576600FCD70B2EFAD700000000960E0101B36F8E
:105776006C0EB46F000EB56F8FDC080E0B6E9D0EAF
:105786000C6E050E0D6E0D2EFED70C2EFCD70B2EB5
:10579600FAD700000000690E0101B36F6A0EB46FFC
:1057A600000EB56F79DC080E0B6E9D0E0C6E050EA5
:1057B6000D6E0D2EFED70C2EFCD70B2EFAD7000041
:1057C6000000FC0E0101B36F6B0EB46F000EB56FD7
:1057D60063DC990E0B6E310E0C6EA20E0D6E0D2E45
:1057E600FED70C2EFCD70B2EFAD70000B40E010103
:1057F600B36F6C0EB46F000EB56F4EDC060E0B6EFB
:10580600130E0C6EAD0E0D6E0D2EFED70C2EFCD7A4
:105816000B2EFAD700000000E60E0101B36F6C0EE6
:10582600B46F000EB56F38DC1A0E0B6E5E0E0C6E82
:105836006E0E0D6E0D2EFED70C2EFCD70B2EFAD744
:105846000000DE0E0101B36F6A0EB46F000EB56F75
:1058560023DC120E0B6EC20E0C6E660E0D6E0D2E36
:10586600FED70C2EFCD70B2EFAD70000838401013D
:10587600A26BF6DD00C048F001C049F01DDF000E46
:10588600046E000E056E7A0E066E870E076E23EC0A
:1058960001F0000E046EC00E056E7F0E066E880EB9
:1058A600076EC5EC13F000C04AF001C04BF002C011
:1058B6004CF003C04DF0010E0101A26FD1DD00C016
:1058C60048F001C049F0A50E0101A26F670EA36F53
:1058D600000EA46FA7DEE3DD470EA26F010EA36FD5
:1058E6003A0E7A6F7B6B7A0EA46F010EA56FFADC07
:1058F60000C0A4F101C0A5F1290E0101A26F010E9D
:10590600A36F30DCA26BA36B7D0E7C6F7D6B7C0E70
:10591600A46F010EA56FE6DC00C0A4F101C0A5F1DD
:10592600290E0101A26F010EA36F1CDC290EA26FC6
:10593600010EA36F0EDC00C044F001C045F002C0AA
:1059460046F003C047F0000E046E000E056E400ED2
:10595600066E800E076E42EC07F0010ED8A4000E0C
:10596600006E0052D8A48180000E046E000E056EF3
:10597600000E066E800E076E44C000F045C001F0B2
:1059860046C002F047C003F042EC07F0010ED8A46F
:10599600000E006E0052D8A48190040E0B6E0C0E01
:1059A6000C6E330E0D6E01010D2EFDD70C2EFBD79E
:1059B6000B2EF9D700000000150EA26F670EA36F1D
:1059C600000EA46F2FDE6BDD470EA26F010EA36FD4
:1059D6003A0E7E6F7F6B7E0EA46F010EA56F82DC82
:1059E60000C0A4F101C0A5F1290E0101A26F010EAC
:1059F600A36FB5EC28F0A26BA36B7D0E806F816B55
:105A0600800EA46F010EA56F6DDC00C0A4F101C06D
:105A1600A5F1290E0101A26F010EA36FB5EC28F0C6
:105A2600290EA26F010EA36FACEC28F000C040F067
:105A360001C041F002C042F003C043F0000E046E04
:105A4600000E056E400E066E800E076E42EC07F0E5
:105A5600010ED8A4000E006E0052D8A48182000E5A
